{
  "contractName": "Manager",
  "abi": [
    {
      "inputs": [],
      "payable": false,
      "stateMutability": "nonpayable",
      "type": "constructor"
    },
    {
      "constant": true,
      "inputs": [],
      "name": "oracleContractCount",
      "outputs": [
        {
          "internalType": "uint256",
          "name": "",
          "type": "uint256"
        }
      ],
      "payable": false,
      "stateMutability": "view",
      "type": "function"
    },
    {
      "constant": true,
      "inputs": [],
      "name": "stateContractCount",
      "outputs": [
        {
          "internalType": "uint256",
          "name": "",
          "type": "uint256"
        }
      ],
      "payable": false,
      "stateMutability": "view",
      "type": "function"
    },
    {
      "constant": true,
      "inputs": [],
      "name": "userGroupCount",
      "outputs": [
        {
          "internalType": "uint256",
          "name": "",
          "type": "uint256"
        }
      ],
      "payable": false,
      "stateMutability": "view",
      "type": "function"
    },
    {
      "constant": true,
      "inputs": [
        {
          "internalType": "uint256",
          "name": "",
          "type": "uint256"
        }
      ],
      "name": "userGroups",
      "outputs": [
        {
          "internalType": "uint256",
          "name": "id",
          "type": "uint256"
        },
        {
          "internalType": "address",
          "name": "owner",
          "type": "address"
        },
        {
          "internalType": "string",
          "name": "name",
          "type": "string"
        },
        {
          "internalType": "address",
          "name": "stateContract",
          "type": "address"
        },
        {
          "internalType": "address",
          "name": "oracleContract",
          "type": "address"
        }
      ],
      "payable": false,
      "stateMutability": "view",
      "type": "function"
    },
    {
      "constant": true,
      "inputs": [],
      "name": "get_name",
      "outputs": [
        {
          "internalType": "string",
          "name": "",
          "type": "string"
        }
      ],
      "payable": false,
      "stateMutability": "view",
      "type": "function"
    },
    {
      "constant": false,
      "inputs": [
        {
          "internalType": "string",
          "name": "_name",
          "type": "string"
        }
      ],
      "name": "create_group",
      "outputs": [],
      "payable": false,
      "stateMutability": "nonpayable",
      "type": "function"
    },
    {
      "constant": true,
      "inputs": [
        {
          "internalType": "string",
          "name": "_groupname",
          "type": "string"
        }
      ],
      "name": "get_id",
      "outputs": [
        {
          "internalType": "uint256",
          "name": "",
          "type": "uint256"
        }
      ],
      "payable": false,
      "stateMutability": "view",
      "type": "function"
    },
    {
      "constant": true,
      "inputs": [
        {
          "internalType": "uint256",
          "name": "_gid",
          "type": "uint256"
        }
      ],
      "name": "get_group_name",
      "outputs": [
        {
          "internalType": "string",
          "name": "",
          "type": "string"
        }
      ],
      "payable": false,
      "stateMutability": "view",
      "type": "function"
    },
    {
      "constant": true,
      "inputs": [
        {
          "internalType": "uint256",
          "name": "_gid",
          "type": "uint256"
        }
      ],
      "name": "get_state_contract",
      "outputs": [
        {
          "internalType": "address",
          "name": "",
          "type": "address"
        }
      ],
      "payable": false,
      "stateMutability": "view",
      "type": "function"
    },
    {
      "constant": true,
      "inputs": [
        {
          "internalType": "uint256",
          "name": "_gid",
          "type": "uint256"
        }
      ],
      "name": "get_oracle_contract",
      "outputs": [
        {
          "internalType": "address",
          "name": "",
          "type": "address"
        }
      ],
      "payable": false,
      "stateMutability": "view",
      "type": "function"
    }
  ],
  "bytecode": "0x608060405260006001556000600355600060055534801561001f57600080fd5b506040518060400160405280600781526020017f4d616e61676572000000000000000000000000000000000000000000000000008152506000908051906020019061006b929190610071565b50610116565b828054600181600116156101000203166002900490600052602060002090601f016020900481019282601f106100b257805160ff19168380011785556100e0565b828001600101855582156100e0579182015b828111156100df5782518255916020019190600101906100c4565b5b5090506100ed91906100f1565b5090565b61011391905b8082111561010f5760008160009055506001016100f7565b5090565b90565b615b3080620001266000396000f3fe608060405234801561001057600080fd5b506004361061009e5760003560e01c80638424b7fc116100665780638424b7fc146103a0578063d41e4f971461040e578063d4e2e5791461042c578063e1433bda146104fb578063e3942a34146105b65761009e565b806305cac4ae146100a35780630eacc4a5146100c15780633a525c29146102085780634740f2141461028b578063837e83fa14610332575b600080fd5b6100ab6105d4565b6040518082815260200191505060405180910390f35b6100ed600480360360208110156100d757600080fd5b81019080803590602001909291905050506105da565b604051808681526020018573ffffffffffffffffffffffffffffffffffffffff1673ffffffffffffffffffffffffffffffffffffffff168152602001806020018473ffffffffffffffffffffffffffffffffffffffff1673ffffffffffffffffffffffffffffffffffffffff1681526020018373ffffffffffffffffffffffffffffffffffffffff1673ffffffffffffffffffffffffffffffffffffffff168152602001828103825285818151815260200191508051906020019080838360005b838110156101c95780820151818401526020810190506101ae565b50505050905090810190601f1680156101f65780820380516001836020036101000a031916815260200191505b50965050505050505060405180910390f35b610210610708565b6040518080602001828103825283818151815260200191508051906020019080838360005b83811015610250578082015181840152602081019050610235565b50505050905090810190601f16801561027d5780820380516001836020036101000a031916815260200191505b509250505060405180910390f35b6102b7600480360360208110156102a157600080fd5b81019080803590602001909291905050506107aa565b6040518080602001828103825283818151815260200191508051906020019080838360005b838110156102f75780820151818401526020810190506102dc565b50505050905090810190601f1680156103245780820380516001836020036101000a031916815260200191505b509250505060405180910390f35b61035e6004803603602081101561034857600080fd5b8101908080359060200190929190505050610862565b604051808273ffffffffffffffffffffffffffffffffffffffff1673ffffffffffffffffffffffffffffffffffffffff16815260200191505060405180910390f35b6103cc600480360360208110156103b657600080fd5b81019080803590602001909291905050506108a2565b604051808273ffffffffffffffffffffffffffffffffffffffff1673ffffffffffffffffffffffffffffffffffffffff16815260200191505060405180910390f35b6104166108e2565b6040518082815260200191505060405180910390f35b6104e56004803603602081101561044257600080fd5b810190808035906020019064010000000081111561045f57600080fd5b82018360208201111561047157600080fd5b8035906020019184600183028401116401000000008311171561049357600080fd5b91908080601f016020809104026020016040519081016040528093929190818152602001838380828437600081840152601f19601f8201169050808301925050505050505091929192905050506108e8565b6040518082815260200191505060405180910390f35b6105b46004803603602081101561051157600080fd5b810190808035906020019064010000000081111561052e57600080fd5b82018360208201111561054057600080fd5b8035906020019184600183028401116401000000008311171561056257600080fd5b91908080601f016020809104026020016040519081016040528093929190818152602001838380828437600081840152601f19601f820116905080830192505050505050509192919290505050610a1e565b005b6105be610cbd565b6040518082815260200191505060405180910390f35b60015481565b60066020528060005260406000206000915090508060000154908060010160009054906101000a900473ffffffffffffffffffffffffffffffffffffffff1690806002018054600181600116156101000203166002900480601f0160208091040260200160405190810160405280929190818152602001828054600181600116156101000203166002900480156106b25780601f10610687576101008083540402835291602001916106b2565b820191906000526020600020905b81548152906001019060200180831161069557829003601f168201915b5050505050908060030160009054906101000a900473ffffffffffffffffffffffffffffffffffffffff16908060040160009054906101000a900473ffffffffffffffffffffffffffffffffffffffff16905085565b606060008054600181600116156101000203166002900480601f0160208091040260200160405190810160405280929190818152602001828054600181600116156101000203166002900480156107a05780601f10610775576101008083540402835291602001916107a0565b820191906000526020600020905b81548152906001019060200180831161078357829003601f168201915b5050505050905090565b6060600660008381526020019081526020016000206002018054600181600116156101000203166002900480601f0160208091040260200160405190810160405280929190818152602001828054600181600116156101000203166002900480156108565780601f1061082b57610100808354040283529160200191610856565b820191906000526020600020905b81548152906001019060200180831161083957829003601f168201915b50505050509050919050565b60006006600083815260200190815260200160002060040160009054906101000a900473ffffffffffffffffffffffffffffffffffffffff169050919050565b60006006600083815260200190815260200160002060030160009054906101000a900473ffffffffffffffffffffffffffffffffffffffff169050919050565b60035481565b600080600090505b600554811015610a1757826040516020018082805190602001908083835b60208310610931578051825260208201915060208101905060208303925061090e565b6001836020036101000a038019825116818451168082178552505050505050905001915050604051602081830303815290604052805190602001206006600083815260200190815260200160002060020160405160200180828054600181600116156101000203166002900480156109e05780601f106109be5761010080835404028352918201916109e0565b820191906000526020600020905b8154815290600101906020018083116109cc575b5050915050604051602081830303815290604052805190602001201415610a0a5780915050610a19565b80806001019150506108f0565b505b919050565b610a26610df9565b60055481600001818152505033816020019073ffffffffffffffffffffffffffffffffffffffff16908173ffffffffffffffffffffffffffffffffffffffff1681525050818160400181905250610a7b610cc3565b816080019073ffffffffffffffffffffffffffffffffffffffff16908173ffffffffffffffffffffffffffffffffffffffff16815250506000610abc610d5e565b90508073ffffffffffffffffffffffffffffffffffffffff1663bd4f3b8383608001516040518263ffffffff1660e01b8152600401808273ffffffffffffffffffffffffffffffffffffffff1673ffffffffffffffffffffffffffffffffffffffff168152602001915050600060405180830381600087803b158015610b4157600080fd5b505af1158015610b55573d6000803e3d6000fd5b5050505080826060019073ffffffffffffffffffffffffffffffffffffffff16908173ffffffffffffffffffffffffffffffffffffffff1681525050816006600060055481526020019081526020016000206000820151816000015560208201518160010160006101000a81548173ffffffffffffffffffffffffffffffffffffffff021916908373ffffffffffffffffffffffffffffffffffffffff1602179055506040820151816002019080519060200190610c14929190610e6a565b5060608201518160030160006101000a81548173ffffffffffffffffffffffffffffffffffffffff021916908373ffffffffffffffffffffffffffffffffffffffff16021790555060808201518160040160006101000a81548173ffffffffffffffffffffffffffffffffffffffff021916908373ffffffffffffffffffffffffffffffffffffffff160217905550905050600560008154809291906001019190505550505050565b60055481565b600080604051610cd290610eea565b604051809103906000f080158015610cee573d6000803e3d6000fd5b5090508060046000600354815260200190815260200160002060006101000a81548173ffffffffffffffffffffffffffffffffffffffff021916908373ffffffffffffffffffffffffffffffffffffffff1602179055506003600081548092919060010191905055508091505090565b600080604051610d6d90610ef8565b604051809103906000f080158015610d89573d6000803e3d6000fd5b5090508060026000600154815260200190815260200160002060006101000a81548173ffffffffffffffffffffffffffffffffffffffff021916908373ffffffffffffffffffffffffffffffffffffffff1602179055506001600081548092919060010191905055508091505090565b6040518060a0016040528060008152602001600073ffffffffffffffffffffffffffffffffffffffff16815260200160608152602001600073ffffffffffffffffffffffffffffffffffffffff168152602001600073ffffffffffffffffffffffffffffffffffffffff1681525090565b828054600181600116156101000203166002900490600052602060002090601f016020900481019282601f10610eab57805160ff1916838001178555610ed9565b82800160010185558215610ed9579182015b82811115610ed8578251825591602001919060010190610ebd565b5b509050610ee69190610f06565b5090565b611a598062000f2c83390190565b613177806200298583390190565b610f2891905b80821115610f24576000816000905550600101610f0c565b5090565b9056fe608060405260006005553480156200001657600080fd5b506040518060400160405280600f81526020017f4f7261636c6520636f6e7472616374000000000000000000000000000000000081525060009080519060200190620000649291906200006b565b506200011a565b828054600181600116156101000203166002900490600052602060002090601f016020900481019282601f10620000ae57805160ff1916838001178555620000df565b82800160010185558215620000df579182015b82811115620000de578251825591602001919060010190620000c1565b5b509050620000ee9190620000f2565b5090565b6200011791905b8082111562000113576000816000905550600101620000f9565b5090565b90565b61192f806200012a6000396000f3fe608060405234801561001057600080fd5b50600436106100f55760003560e01c80637c77bf1611610097578063c520498611610066578063c5204986146108ad578063c5ccf33f14610972578063ddf9635814610a19578063e594572914610a37576100f5565b80637c77bf16146105225780637ce890041461067457806380eb5f20146107e8578063bfda4a4914610806576100f5565b8063518108d6116100d3578063518108d6146102df57806351e7c81b146102fd5780635acf2808146103d0578063683ace6514610408576100f5565b8063017a9105146100fa57806333d3bce6146101a15780633a525c291461025c575b600080fd5b6101266004803603602081101561011057600080fd5b8101908080359060200190929190505050610aba565b6040518080602001828103825283818151815260200191508051906020019080838360005b8381101561016657808201518184015260208101905061014b565b50505050905090810190601f1680156101935780820380516001836020036101000a031916815260200191505b509250505060405180910390f35b61025a600480360360208110156101b757600080fd5b81019080803590602001906401000000008111156101d457600080fd5b8201836020820111156101e657600080fd5b8035906020019184600183028401116401000000008311171561020857600080fd5b91908080601f016020809104026020016040519081016040528093929190818152602001838380828437600081840152601f19601f820116905080830192505050505050509192919290505050610b6a565b005b610264610ba9565b6040518080602001828103825283818151815260200191508051906020019080838360005b838110156102a4578082015181840152602081019050610289565b50505050905090810190601f1680156102d15780820380516001836020036101000a031916815260200191505b509250505060405180910390f35b6102e7610c4b565b6040518082815260200191505060405180910390f35b6103b66004803603602081101561031357600080fd5b810190808035906020019064010000000081111561033057600080fd5b82018360208201111561034257600080fd5b8035906020019184600183028401116401000000008311171561036457600080fd5b91908080601f016020809104026020016040519081016040528093929190818152602001838380828437600081840152601f19601f820116905080830192505050505050509192919290505050610c51565b604051808215151515815260200191505060405180910390f35b610406600480360360408110156103e657600080fd5b810190808035906020019092919080359060200190929190505050610d89565b005b6104346004803603602081101561041e57600080fd5b8101908080359060200190929190505050610da8565b604051808060200180602001848152602001838103835286818151815260200191508051906020019080838360005b8381101561047e578082015181840152602081019050610463565b50505050905090810190601f1680156104ab5780820380516001836020036101000a031916815260200191505b50838103825285818151815260200191508051906020019080838360005b838110156104e45780820151818401526020810190506104c9565b50505050905090810190601f1680156105115780820380516001836020036101000a031916815260200191505b509550505050505060405180910390f35b6106726004803603604081101561053857600080fd5b810190808035906020019064010000000081111561055557600080fd5b82018360208201111561056757600080fd5b8035906020019184600183028401116401000000008311171561058957600080fd5b91908080601f016020809104026020016040519081016040528093929190818152602001838380828437600081840152601f19601f820116905080830192505050505050509192919290803590602001906401000000008111156105ec57600080fd5b8201836020820111156105fe57600080fd5b8035906020019184600183028401116401000000008311171561062057600080fd5b91908080601f016020809104026020016040519081016040528093929190818152602001838380828437600081840152601f19601f820116905080830192505050505050509192919290505050610f02565b005b6107ce6004803603606081101561068a57600080fd5b81019080803590602001906401000000008111156106a757600080fd5b8201836020820111156106b957600080fd5b803590602001918460018302840111640100000000831117156106db57600080fd5b91908080601f016020809104026020016040519081016040528093929190818152602001838380828437600081840152601f19601f8201169050808301925050505050505091929192908035906020019064010000000081111561073e57600080fd5b82018360208201111561075057600080fd5b8035906020019184600183028401116401000000008311171561077257600080fd5b91908080601f016020809104026020016040519081016040528093929190818152602001838380828437600081840152601f19601f82011690508083019250505050505050919291929080359060200190929190505050610fc2565b604051808215151515815260200191505060405180910390f35b6107f0611242565b6040518082815260200191505060405180910390f35b6108326004803603602081101561081c57600080fd5b8101908080359060200190929190505050611248565b6040518080602001828103825283818151815260200191508051906020019080838360005b83811015610872578082015181840152602081019050610857565b50505050905090810190601f16801561089f5780820380516001836020036101000a031916815260200191505b509250505060405180910390f35b610970600480360360408110156108c357600080fd5b81019080803590602001906401000000008111156108e057600080fd5b8201836020820111156108f257600080fd5b8035906020019184600183028401116401000000008311171561091457600080fd5b91908080601f016020809104026020016040519081016040528093929190818152602001838380828437600081840152601f19601f820116905080830192505050505050509192919290803590602001909291905050506112f8565b005b61099e6004803603602081101561098857600080fd5b8101908080359060200190929190505050611336565b6040518080602001828103825283818151815260200191508051906020019080838360005b838110156109de5780820151818401526020810190506109c3565b50505050905090810190601f168015610a0b5780820380516001836020036101000a031916815260200191505b509250505060405180910390f35b610a216116ad565b6040518082815260200191505060405180910390f35b610a3f6116b3565b6040518080602001828103825283818151815260200191508051906020019080838360005b83811015610a7f578082015181840152602081019050610a64565b50505050905090810190601f168015610aac5780820380516001836020036101000a031916815260200191505b509250505060405180910390f35b60026020528060005260406000206000915090508054600181600116156101000203166002900480601f016020809104026020016040519081016040528092919081815260200182805460018160011615610100020316600290048015610b625780601f10610b3757610100808354040283529160200191610b62565b820191906000526020600020905b815481529060010190602001808311610b4557829003601f168201915b505050505081565b806002600060015481526020019081526020016000209080519060200190610b939291906117b4565b5060016000815480929190600101919050555050565b606060008054600181600116156101000203166002900480601f016020809104026020016040519081016040528092919081815260200182805460018160011615610100020316600290048015610c415780601f10610c1657610100808354040283529160200191610c41565b820191906000526020600020905b815481529060010190602001808311610c2457829003601f168201915b5050505050905090565b60015481565b600080600090505b600154811015610d7e57600260008281526020019081526020016000206040516020018082805460018160011615610100020316600290048015610cd45780601f10610cb2576101008083540402835291820191610cd4565b820191906000526020600020905b815481529060010190602001808311610cc0575b505091505060405160208183030381529060405280519060200120836040516020018082805190602001908083835b60208310610d265780518252602082019150602081019050602083039250610d03565b6001836020036101000a038019825116818451168082178552505050505050905001915050604051602081830303815290604052805190602001201415610d71576001915050610d84565b8080600101915050610c59565b50600090505b919050565b8060046000848152602001908152602001600020600201819055505050565b6004602052806000526040600020600091509050806000018054600181600116156101000203166002900480601f016020809104026020016040519081016040528092919081815260200182805460018160011615610100020316600290048015610e545780601f10610e2957610100808354040283529160200191610e54565b820191906000526020600020905b815481529060010190602001808311610e3757829003601f168201915b505050505090806001018054600181600116156101000203166002900480601f016020809104026020016040519081016040528092919081815260200182805460018160011615610100020316600290048015610ef25780601f10610ec757610100808354040283529160200191610ef2565b820191906000526020600020905b815481529060010190602001808311610ed557829003601f168201915b5050505050908060020154905083565b60001515610f0f83610c51565b15151480610f29575060001515610f2582610c51565b1515145b15610f3357610fbe565b610f3b611834565b828160000181905250818160200181905250806004600060035481526020019081526020016000206000820151816000019080519060200190610f7f929190611855565b506020820151816001019080519060200190610f9c929190611855565b5060408201518160020155905050600360008154809291906001019190505550505b5050565b600080600090505b60035481101561123557846040516020018082805190602001908083835b6020831061100b5780518252602082019150602081019050602083039250610fe8565b6001836020036101000a038019825116818451168082178552505050505050905001915050604051602081830303815290604052805190602001206004600083815260200190815260200160002060000160405160200180828054600181600116156101000203166002900480156110ba5780601f106110985761010080835404028352918201916110ba565b820191906000526020600020905b8154815290600101906020018083116110a6575b505091505060405160208183030381529060405280519060200120141561122857836040516020018082805190602001908083835b6020831061111257805182526020820191506020810190506020830392506110ef565b6001836020036101000a038019825116818451168082178552505050505050905001915050604051602081830303815290604052805190602001206004600083815260200190815260200160002060010160405160200180828054600181600116156101000203166002900480156111c15780601f1061119f5761010080835404028352918201916111c1565b820191906000526020600020905b8154815290600101906020018083116111ad575b50509150506040516020818303038152906040528051906020012014156112275760008314156111f557600191505061123b565b826004600083815260200190815260200160002060020154141561121d57600191505061123b565b600091505061123b565b5b8080600101915050610fca565b50600090505b9392505050565b60035481565b60066020528060005260406000206000915090508054600181600116156101000203166002900480601f0160208091040260200160405190810160405280929190818152602001828054600181600116156101000203166002900480156112f05780601f106112c5576101008083540402835291602001916112f0565b820191906000526020600020905b8154815290600101906020018083116112d357829003601f168201915b505050505081565b8160066000838152602001908152602001600020908051906020019061131f9291906117b4565b506005600081548092919060010191905055505050565b6060600354821061137e576040518060400160405280601981526020017f7472616e736974696f6e20646f6573206e6f742065786973740000000000000081525090506116a8565b6060600460008481526020019081526020016000206000018054600181600116156101000203166002900480601f01602080910402602001604051908101604052809291908181526020018280546001816001161561010002031660029004801561142a5780601f106113ff5761010080835404028352916020019161142a565b820191906000526020600020905b81548152906001019060200180831161140d57829003601f168201915b505050505090506060600460008581526020019081526020016000206001018054600181600116156101000203166002900480601f0160208091040260200160405190810160405280929190818152602001828054600181600116156101000203166002900480156114dd5780601f106114b2576101008083540402835291602001916114dd565b820191906000526020600020905b8154815290600101906020018083116114c057829003601f168201915b5050505050905060606040518060400160405280600481526020017f203d3e20000000000000000000000000000000000000000000000000000000008152509050606083826040516020018083805190602001908083835b602083106115585780518252602082019150602081019050602083039250611535565b6001836020036101000a03801982511681845116808217855250505050505090500182805190602001908083835b602083106115a95780518252602082019150602081019050602083039250611586565b6001836020036101000a03801982511681845116808217855250505050505090500192505050604051602081830303815290604052905080836040516020018083805190602001908083835b6020831061161857805182526020820191506020810190506020830392506115f5565b6001836020036101000a03801982511681845116808217855250505050505090500182805190602001908083835b602083106116695780518252602082019150602081019050602083039250611646565b6001836020036101000a038019825116818451168082178552505050505050905001925050506040516020818303038152906040529050809450505050505b919050565b60055481565b60608060008090505b6001548110156117ac5781600260008381526020019081526020016000206040516020018083805190602001908083835b6020831061171057805182526020820191506020810190506020830392506116ed565b6001836020036101000a038019825116818451168082178552505050505050905001828054600181600116156101000203166002900480156117895780601f10611767576101008083540402835291820191611789565b820191906000526020600020905b815481529060010190602001808311611775575b5050925050506040516020818303038152906040525080806001019150506116bc565b508091505090565b828054600181600116156101000203166002900490600052602060002090601f016020900481019282601f106117f557805160ff1916838001178555611823565b82800160010185558215611823579182015b82811115611822578251825591602001919060010190611807565b5b50905061183091906118d5565b5090565b60405180606001604052806060815260200160608152602001600081525090565b828054600181600116156101000203166002900490600052602060002090601f016020900481019282601f1061189657805160ff19168380011785556118c4565b828001600101855582156118c4579182015b828111156118c35782518255916020019190600101906118a8565b5b5090506118d191906118d5565b5090565b6118f791905b808211156118f35760008160009055506001016118db565b5090565b9056fea265627a7a72315820514e615aff6db9915bdc71fc8769463ecc1f837eecf16c9504c20cfa1c90d6f664736f6c634300051000326080604052739838a5e2cb634b8852548f0449fe0a6d116aa232600160006101000a81548173ffffffffffffffffffffffffffffffffffffffff021916908373ffffffffffffffffffffffffffffffffffffffff1602179055506040518060400160405280600f81526020017f64656661756c7420696e697469616c000000000000000000000000000000000081525060029080519060200190620000a692919062000166565b506040518060400160405280600d81526020017f64656661756c742066696e616c0000000000000000000000000000000000000081525060039080519060200190620000f492919062000166565b506000600555600060075560006009553480156200011157600080fd5b506040518060400160405280600e81526020017f537461746520636f6e7472616374000000000000000000000000000000000000815250600090805190602001906200015f92919062000166565b5062000215565b828054600181600116156101000203166002900490600052602060002090601f016020900481019282601f10620001a957805160ff1916838001178555620001da565b82800160010185558215620001da579182015b82811115620001d9578251825591602001919060010190620001bc565b5b509050620001e99190620001ed565b5090565b6200021291905b808211156200020e576000816000905550600101620001f4565b5090565b90565b612f5280620002256000396000f3fe608060405234801561001057600080fd5b50600436106101a95760003560e01c8063648406b9116100f9578063ddf9635811610097578063eafe7a7411610071578063eafe7a7414611259578063ee16d3c014611277578063eefc8ab714611332578063f42271041461140f576101a9565b8063ddf963581461102e578063e2183e631461104c578063e2889a16146111b2576101a9565b8063a91a5d39116100d3578063a91a5d3914610bd2578063bd4f3b8314610c79578063bfda4a4914610cbd578063cf35bdd014610d64576101a9565b8063648406b914610a5657806394eb499914610a84578063a1bd8e8314610b2b576101a9565b80632561ef45116101665780634d278ea7116101405780634d278ea7146105dd578063590fa6f81461085d57806359282154146108e05780636274ecc01461099b576101a9565b80632561ef45146103e0578063365b98b2146104a55780633a525c291461055a576101a9565b806307973ccf146101ae5780630ac298dc146101cc57806318074c68146102165780631d3e95c51461024e5780631ec097c61461031357806322f3099c1461035d575b600080fd5b6101b66114b6565b6040518082815260200191505060405180910390f35b6101d46114bc565b604051808273ffffffffffffffffffffffffffffffffffffffff1673ffffffffffffffffffffffffffffffffffffffff16815260200191505060405180910390f35b61024c6004803603604081101561022c57600080fd5b8101908080359060200190929190803590602001909291905050506114e6565b005b6103116004803603604081101561026457600080fd5b810190808035906020019064010000000081111561028157600080fd5b82018360208201111561029357600080fd5b803590602001918460018302840111640100000000831117156102b557600080fd5b91908080601f016020809104026020016040519081016040528093929190818152602001838380828437600081840152601f19601f82011690508083019250505050505050919291929080359060200190929190505050611505565b005b61031b61158d565b604051808273ffffffffffffffffffffffffffffffffffffffff1673ffffffffffffffffffffffffffffffffffffffff16815260200191505060405180910390f35b6103656115b7565b6040518080602001828103825283818151815260200191508051906020019080838360005b838110156103a557808201518184015260208101905061038a565b50505050905090810190601f1680156103d25780820380516001836020036101000a031916815260200191505b509250505060405180910390f35b6104a3600480360360408110156103f657600080fd5b81019080803590602001909291908035906020019064010000000081111561041d57600080fd5b82018360208201111561042f57600080fd5b8035906020019184600183028401116401000000008311171561045157600080fd5b91908080601f016020809104026020016040519081016040528093929190818152602001838380828437600081840152601f19601f820116905080830192505050505050509192919290505050611655565b005b6104d1600480360360208110156104bb57600080fd5b8101908080359060200190929190505050611684565b6040518084815260200180602001838152602001828103825284818151815260200191508051906020019080838360005b8381101561051d578082015181840152602081019050610502565b50505050905090810190601f16801561054a5780820380516001836020036101000a031916815260200191505b5094505050505060405180910390f35b610562611746565b6040518080602001828103825283818151815260200191508051906020019080838360005b838110156105a2578082015181840152602081019050610587565b50505050905090810190601f1680156105cf5780820380516001836020036101000a031916815260200191505b509250505060405180910390f35b61085b600480360360808110156105f357600080fd5b810190808035906020019064010000000081111561061057600080fd5b82018360208201111561062257600080fd5b8035906020019184600183028401116401000000008311171561064457600080fd5b91908080601f016020809104026020016040519081016040528093929190818152602001838380828437600081840152601f19601f820116905080830192505050505050509192919290803590602001906401000000008111156106a757600080fd5b8201836020820111156106b957600080fd5b803590602001918460018302840111640100000000831117156106db57600080fd5b91908080601f016020809104026020016040519081016040528093929190818152602001838380828437600081840152601f19601f8201169050808301925050505050505091929192908035906020019064010000000081111561073e57600080fd5b82018360208201111561075057600080fd5b8035906020019184600183028401116401000000008311171561077257600080fd5b91908080601f016020809104026020016040519081016040528093929190818152602001838380828437600081840152601f19601f820116905080830192505050505050509192919290803590602001906401000000008111156107d557600080fd5b8201836020820111156107e757600080fd5b8035906020019184600183028401116401000000008311171561080957600080fd5b91908080601f016020809104026020016040519081016040528093929190818152602001838380828437600081840152601f19601f8201169050808301925050505050505091929192905050506117e8565b005b6108656119eb565b6040518080602001828103825283818151815260200191508051906020019080838360005b838110156108a557808201518184015260208101905061088a565b50505050905090810190601f1680156108d25780820380516001836020036101000a031916815260200191505b509250505060405180910390f35b610999600480360360208110156108f657600080fd5b810190808035906020019064010000000081111561091357600080fd5b82018360208201111561092557600080fd5b8035906020019184600183028401116401000000008311171561094757600080fd5b91908080601f016020809104026020016040519081016040528093929190818152602001838380828437600081840152601f19601f820116905080830192505050505050509192919290505050611a89565b005b610a54600480360360208110156109b157600080fd5b81019080803590602001906401000000008111156109ce57600080fd5b8201836020820111156109e057600080fd5b80359060200191846001830284011164010000000083111715610a0257600080fd5b91908080601f016020809104026020016040519081016040528093929190818152602001838380828437600081840152601f19601f820116905080830192505050505050509192919290505050611bca565b005b610a8260048036036020811015610a6c57600080fd5b8101908080359060200190929190505050611be4565b005b610ab060048036036020811015610a9a57600080fd5b81019080803590602001909291905050506120b0565b6040518080602001828103825283818151815260200191508051906020019080838360005b83811015610af0578082015181840152602081019050610ad5565b50505050905090810190601f168015610b1d5780820380516001836020036101000a031916815260200191505b509250505060405180910390f35b610b5760048036036020811015610b4157600080fd5b8101908080359060200190929190505050612168565b6040518080602001828103825283818151815260200191508051906020019080838360005b83811015610b97578082015181840152602081019050610b7c565b50505050905090810190601f168015610bc45780820380516001836020036101000a031916815260200191505b509250505060405180910390f35b610bfe60048036036020811015610be857600080fd5b8101908080359060200190929190505050612220565b6040518080602001828103825283818151815260200191508051906020019080838360005b83811015610c3e578082015181840152602081019050610c23565b50505050905090810190601f168015610c6b5780820380516001836020036101000a031916815260200191505b509250505060405180910390f35b610cbb60048036036020811015610c8f57600080fd5b81019080803573ffffffffffffffffffffffffffffffffffffffff1690602001909291905050506122d8565b005b610ce960048036036020811015610cd357600080fd5b810190808035906020019092919050505061231c565b6040518080602001828103825283818151815260200191508051906020019080838360005b83811015610d29578082015181840152602081019050610d0e565b50505050905090810190601f168015610d565780820380516001836020036101000a031916815260200191505b509250505060405180910390f35b610d9060048036036020811015610d7a57600080fd5b81019080803590602001909291905050506123cc565b6040518088815260200180602001806020018060200180602001806020018060200187810387528d818151815260200191508051906020019080838360005b83811015610dea578082015181840152602081019050610dcf565b50505050905090810190601f168015610e175780820380516001836020036101000a031916815260200191505b5087810386528c818151815260200191508051906020019080838360005b83811015610e50578082015181840152602081019050610e35565b50505050905090810190601f168015610e7d5780820380516001836020036101000a031916815260200191505b5087810385528b818151815260200191508051906020019080838360005b83811015610eb6578082015181840152602081019050610e9b565b50505050905090810190601f168015610ee35780820380516001836020036101000a031916815260200191505b5087810384528a818151815260200191508051906020019080838360005b83811015610f1c578082015181840152602081019050610f01565b50505050905090810190601f168015610f495780820380516001836020036101000a031916815260200191505b50878103835289818151815260200191508051906020019080838360005b83811015610f82578082015181840152602081019050610f67565b50505050905090810190601f168015610faf5780820380516001836020036101000a031916815260200191505b50878103825288818151815260200191508051906020019080838360005b83811015610fe8578082015181840152602081019050610fcd565b50505050905090810190601f1680156110155780820380516001836020036101000a031916815260200191505b509d505050505050505050505050505060405180910390f35b61103661279e565b6040518082815260200191505060405180910390f35b6111b06004803603608081101561106257600080fd5b81019080803590602001909291908035906020019064010000000081111561108957600080fd5b82018360208201111561109b57600080fd5b803590602001918460018302840111640100000000831117156110bd57600080fd5b91908080601f016020809104026020016040519081016040528093929190818152602001838380828437600081840152601f19601f820116905080830192505050505050509192919290803590602001909291908035906020019064010000000081111561112a57600080fd5b82018360208201111561113c57600080fd5b8035906020019184600183028401116401000000008311171561115e57600080fd5b91908080601f016020809104026020016040519081016040528093929190818152602001838380828437600081840152601f19601f8201169050808301925050505050505091929192905050506127a4565b005b6111de600480360360208110156111c857600080fd5b8101908080359060200190929190505050612a55565b6040518080602001828103825283818151815260200191508051906020019080838360005b8381101561121e578082015181840152602081019050611203565b50505050905090810190601f16801561124b5780820380516001836020036101000a031916815260200191505b509250505060405180910390f35b611261612b0d565b6040518082815260200191505060405180910390f35b6113306004803603602081101561128d57600080fd5b81019080803590602001906401000000008111156112aa57600080fd5b8201836020820111156112bc57600080fd5b803590602001918460018302840111640100000000831117156112de57600080fd5b91908080601f016020809104026020016040519081016040528093929190818152602001838380828437600081840152601f19601f820116905080830192505050505050509192919290505050612b13565b005b6113f56004803603604081101561134857600080fd5b81019080803590602001909291908035906020019064010000000081111561136f57600080fd5b82018360208201111561138157600080fd5b803590602001918460018302840111640100000000831117156113a357600080fd5b91908080601f016020809104026020016040519081016040528093929190818152602001838380828437600081840152601f19601f820116905080830192505050505050509192919290505050612b2d565b604051808215151515815260200191505060405180910390f35b61143b6004803603602081101561142557600080fd5b8101908080359060200190929190505050612ce2565b6040518080602001828103825283818151815260200191508051906020019080838360005b8381101561147b578082015181840152602081019050611460565b50505050905090810190601f1680156114a85780820380516001836020036101000a031916815260200191505b509250505060405180910390f35b60075481565b6000600160009054906101000a900473ffffffffffffffffffffffffffffffffffffffff16905090565b8060086000848152602001908152602001600020600201819055505050565b61150d612d9a565b6007548160000181815250508281602001819052508181604001818152505080600860006007548152602001908152602001600020600082015181600001556020820151816001019080519060200190611568929190612dbb565b5060408201518160020155905050600760008154809291906001019190505550505050565b6000600460009054906101000a900473ffffffffffffffffffffffffffffffffffffffff16905090565b60038054600181600116156101000203166002900480601f01602080910402602001604051908101604052809291908181526020018280546001816001161561010002031660029004801561164d5780601f106116225761010080835404028352916020019161164d565b820191906000526020600020905b81548152906001019060200180831161163057829003601f168201915b505050505081565b8060066000848152602001908152602001600020600601908051906020019061167f929190612e3b565b505050565b6008602052806000526040600020600091509050806000015490806001018054600181600116156101000203166002900480601f0160208091040260200160405190810160405280929190818152602001828054600181600116156101000203166002900480156117365780601f1061170b57610100808354040283529160200191611736565b820191906000526020600020905b81548152906001019060200180831161171957829003601f168201915b5050505050908060020154905083565b606060008054600181600116156101000203166002900480601f0160208091040260200160405190810160405280929190818152602001828054600181600116156101000203166002900480156117de5780601f106117b3576101008083540402835291602001916117de565b820191906000526020600020905b8154815290600101906020018083116117c157829003601f168201915b5050505050905090565b6117f0612ebb565b84816020018190525060028054600181600116156101000203166002900480601f01602080910402602001604051908101604052809291908181526020018280546001816001161561010002031660029004801561188f5780601f106118645761010080835404028352916020019161188f565b820191906000526020600020905b81548152906001019060200180831161187257829003601f168201915b50505050508160800181905250600554816000018181525050838160a001819052508281604001819052508181606001819052506040518060400160405280600481526020017f6e756c6c000000000000000000000000000000000000000000000000000000008152508160c001819052508060066000600554815260200190815260200160002060008201518160000155602082015181600101908051906020019061193d929190612dbb565b50604082015181600201908051906020019061195a929190612dbb565b506060820151816003019080519060200190611977929190612dbb565b506080820151816004019080519060200190611994929190612dbb565b5060a08201518160050190805190602001906119b1929190612dbb565b5060c08201518160060190805190602001906119ce929190612dbb565b509050506005600081548092919060010191905055505050505050565b60028054600181600116156101000203166002900480601f016020809104026020016040519081016040528092919081815260200182805460018160011615610100020316600290048015611a815780601f10611a5657610100808354040283529160200191611a81565b820191906000526020600020905b815481529060010190602001808311611a6457829003601f168201915b505050505081565b80600a600060095481526020019081526020016000209080519060200190611ab2929190612e3b565b506000600460009054906101000a900473ffffffffffffffffffffffffffffffffffffffff1690508073ffffffffffffffffffffffffffffffffffffffff1663c5204986836009546040518363ffffffff1660e01b81526004018080602001838152602001828103825284818151815260200191508051906020019080838360005b83811015611b4f578082015181840152602081019050611b34565b50505050905090810190601f168015611b7c5780820380516001836020036101000a031916815260200191505b509350505050600060405180830381600087803b158015611b9c57600080fd5b505af1158015611bb0573d6000803e3d6000fd5b505050506009600081548092919060010191905055505050565b8060029080519060200190611be0929190612e3b565b5050565b611bec612ebb565b600660008381526020019081526020016000206001018054600181600116156101000203166002900480601f016020809104026020016040519081016040528092919081815260200182805460018160011615610100020316600290048015611c965780601f10611c6b57610100808354040283529160200191611c96565b820191906000526020600020905b815481529060010190602001808311611c7957829003601f168201915b50505050508160200181905250600660008381526020019081526020016000206004018054600181600116156101000203166002900480601f016020809104026020016040519081016040528092919081815260200182805460018160011615610100020316600290048015611d4d5780601f10611d2257610100808354040283529160200191611d4d565b820191906000526020600020905b815481529060010190602001808311611d3057829003601f168201915b50505050508160800181905250600554816000018181525050600660008381526020019081526020016000206005018054600181600116156101000203166002900480601f016020809104026020016040519081016040528092919081815260200182805460018160011615610100020316600290048015611e105780601f10611de557610100808354040283529160200191611e10565b820191906000526020600020905b815481529060010190602001808311611df357829003601f168201915b50505050508160a00181905250600660008381526020019081526020016000206002018054600181600116156101000203166002900480601f016020809104026020016040519081016040528092919081815260200182805460018160011615610100020316600290048015611ec75780601f10611e9c57610100808354040283529160200191611ec7565b820191906000526020600020905b815481529060010190602001808311611eaa57829003601f168201915b50505050508160400181905250600660008381526020019081526020016000206003018054600181600116156101000203166002900480601f016020809104026020016040519081016040528092919081815260200182805460018160011615610100020316600290048015611f7e5780601f10611f5357610100808354040283529160200191611f7e565b820191906000526020600020905b815481529060010190602001808311611f6157829003601f168201915b505050505081606001819052506040518060400160405280600481526020017f6e756c6c000000000000000000000000000000000000000000000000000000008152508160c0018190525080600660006005548152602001908152602001600020600082015181600001556020820151816001019080519060200190612005929190612dbb565b506040820151816002019080519060200190612022929190612dbb565b50606082015181600301908051906020019061203f929190612dbb565b50608082015181600401908051906020019061205c929190612dbb565b5060a0820151816005019080519060200190612079929190612dbb565b5060c0820151816006019080519060200190612096929190612dbb565b509050506005600081548092919060010191905055505050565b6060600660008381526020019081526020016000206006018054600181600116156101000203166002900480601f01602080910402602001604051908101604052809291908181526020018280546001816001161561010002031660029004801561215c5780601f106121315761010080835404028352916020019161215c565b820191906000526020600020905b81548152906001019060200180831161213f57829003601f168201915b50505050509050919050565b6060600660008381526020019081526020016000206002018054600181600116156101000203166002900480601f0160208091040260200160405190810160405280929190818152602001828054600181600116156101000203166002900480156122145780601f106121e957610100808354040283529160200191612214565b820191906000526020600020905b8154815290600101906020018083116121f757829003601f168201915b50505050509050919050565b6060600660008381526020019081526020016000206003018054600181600116156101000203166002900480601f0160208091040260200160405190810160405280929190818152602001828054600181600116156101000203166002900480156122cc5780601f106122a1576101008083540402835291602001916122cc565b820191906000526020600020905b8154815290600101906020018083116122af57829003601f168201915b50505050509050919050565b80600460006101000a81548173ffffffffffffffffffffffffffffffffffffffff021916908373ffffffffffffffffffffffffffffffffffffffff16021790555050565b600a6020528060005260406000206000915090508054600181600116156101000203166002900480601f0160208091040260200160405190810160405280929190818152602001828054600181600116156101000203166002900480156123c45780601f10612399576101008083540402835291602001916123c4565b820191906000526020600020905b8154815290600101906020018083116123a757829003601f168201915b505050505081565b6006602052806000526040600020600091509050806000015490806001018054600181600116156101000203166002900480601f01602080910402602001604051908101604052809291908181526020018280546001816001161561010002031660029004801561247e5780601f106124535761010080835404028352916020019161247e565b820191906000526020600020905b81548152906001019060200180831161246157829003601f168201915b505050505090806002018054600181600116156101000203166002900480601f01602080910402602001604051908101604052809291908181526020018280546001816001161561010002031660029004801561251c5780601f106124f15761010080835404028352916020019161251c565b820191906000526020600020905b8154815290600101906020018083116124ff57829003601f168201915b505050505090806003018054600181600116156101000203166002900480601f0160208091040260200160405190810160405280929190818152602001828054600181600116156101000203166002900480156125ba5780601f1061258f576101008083540402835291602001916125ba565b820191906000526020600020905b81548152906001019060200180831161259d57829003601f168201915b505050505090806004018054600181600116156101000203166002900480601f0160208091040260200160405190810160405280929190818152602001828054600181600116156101000203166002900480156126585780601f1061262d57610100808354040283529160200191612658565b820191906000526020600020905b81548152906001019060200180831161263b57829003601f168201915b505050505090806005018054600181600116156101000203166002900480601f0160208091040260200160405190810160405280929190818152602001828054600181600116156101000203166002900480156126f65780601f106126cb576101008083540402835291602001916126f6565b820191906000526020600020905b8154815290600101906020018083116126d957829003601f168201915b505050505090806006018054600181600116156101000203166002900480601f0160208091040260200160405190810160405280929190818152602001828054600181600116156101000203166002900480156127945780601f1061276957610100808354040283529160200191612794565b820191906000526020600020905b81548152906001019060200180831161277757829003601f168201915b5050505050905087565b60095481565b60006127b08583612b2d565b90506000151581151514156127c55750612a4f565b6060600660008781526020019081526020016000206004018054600181600116156101000203166002900480601f0160208091040260200160405190810160405280929190818152602001828054600181600116156101000203166002900480156128715780601f1061284657610100808354040283529160200191612871565b820191906000526020600020905b81548152906001019060200180831161285457829003601f168201915b505050505090506000600460009054906101000a900473ffffffffffffffffffffffffffffffffffffffff16905060008173ffffffffffffffffffffffffffffffffffffffff16637ce890048489896040518463ffffffff1660e01b8152600401808060200180602001848152602001838103835286818151815260200191508051906020019080838360005b838110156129195780820151818401526020810190506128fe565b50505050905090810190601f1680156129465780820380516001836020036101000a031916815260200191505b50838103825285818151815260200191508051906020019080838360005b8381101561297f578082015181840152602081019050612964565b50505050905090810190601f1680156129ac5780820380516001836020036101000a031916815260200191505b509550505050505060206040518083038186803b1580156129cc57600080fd5b505afa1580156129e0573d6000803e3d6000fd5b505050506040513d60208110156129f657600080fd5b81019080805190602001909291905050509050600015158115151415612a1f5750505050612a4f565b86600660008a81526020019081526020016000206004019080519060200190612a49929190612e3b565b50505050505b50505050565b6060600660008381526020019081526020016000206001018054600181600116156101000203166002900480601f016020809104026020016040519081016040528092919081815260200182805460018160011615610100020316600290048015612b015780601f10612ad657610100808354040283529160200191612b01565b820191906000526020600020905b815481529060010190602001808311612ae457829003601f168201915b50505050509050919050565b60055481565b8060039080519060200190612b29929190612e3b565b5050565b60006060600660008581526020019081526020016000206005018054600181600116156101000203166002900480601f016020809104026020016040519081016040528092919081815260200182805460018160011615610100020316600290048015612bdb5780601f10612bb057610100808354040283529160200191612bdb565b820191906000526020600020905b815481529060010190602001808311612bbe57829003601f168201915b50505050509050826040516020018082805190602001908083835b60208310612c195780518252602082019150602081019050602083039250612bf6565b6001836020036101000a03801982511681845116808217855250505050505090500191505060405160208183030381529060405280519060200120816040516020018082805190602001908083835b60208310612c8b5780518252602082019150602081019050602083039250612c68565b6001836020036101000a038019825116818451168082178552505050505050905001915050604051602081830303815290604052805190602001201415612cd6576001915050612cdc565b60009150505b92915050565b6060600660008381526020019081526020016000206004018054600181600116156101000203166002900480601f016020809104026020016040519081016040528092919081815260200182805460018160011615610100020316600290048015612d8e5780601f10612d6357610100808354040283529160200191612d8e565b820191906000526020600020905b815481529060010190602001808311612d7157829003601f168201915b50505050509050919050565b60405180606001604052806000815260200160608152602001600081525090565b828054600181600116156101000203166002900490600052602060002090601f016020900481019282601f10612dfc57805160ff1916838001178555612e2a565b82800160010185558215612e2a579182015b82811115612e29578251825591602001919060010190612e0e565b5b509050612e379190612ef8565b5090565b828054600181600116156101000203166002900490600052602060002090601f016020900481019282601f10612e7c57805160ff1916838001178555612eaa565b82800160010185558215612eaa579182015b82811115612ea9578251825591602001919060010190612e8e565b5b509050612eb79190612ef8565b5090565b6040518060e00160405280600081526020016060815260200160608152602001606081526020016060815260200160608152602001606081525090565b612f1a91905b80821115612f16576000816000905550600101612efe565b5090565b9056fea265627a7a723158208114e5be9262ad16fc676b5063642226a9f22c7d6348031800d2ccc0afb0ce0764736f6c63430005100032a265627a7a72315820438f69c9edcf28db7e577d148b5ea6ff3d760991d20aa5de07c810cbb74f0ee764736f6c63430005100032",
  "source": "pragma solidity ^0.5.0;\r\n\r\nimport \"./State.sol\";\r\nimport \"./Oracle.sol\";\r\n\r\ncontract Manager {\r\n  string name;\r\n\r\n  uint public stateContractCount = 0;\r\n  mapping(uint => address) stateContracts;\r\n\r\n  uint public oracleContractCount = 0;\r\n  mapping(uint => address) oracleContracts;\r\n\r\n  uint public userGroupCount = 0;\r\n  mapping(uint => UserGroup) public userGroups;\r\n\r\n  constructor() public {\r\n    name = \"Manager\";\r\n  }\r\n\r\n  struct UserGroup {\r\n    uint id;\r\n    address owner;\r\n    string name;\r\n    address stateContract;\r\n    address oracleContract;\r\n  }\r\n\r\n  function get_name() public view returns (string memory)\r\n  {\r\n    return name;\r\n  }\r\n\r\n  function create_group(string memory _name) public       // Creates a new group and assigns a new state and oracle contract\r\n  {\r\n    UserGroup memory ug; \r\n    ug.id = userGroupCount;\r\n    ug.owner = msg.sender;\r\n    ug.name = _name;\r\n    ug.oracleContract = create_oracle_contract();\r\n    State s = State(create_state_contract());\r\n    s.set_oracle(ug.oracleContract);\r\n    ug.stateContract = address(s);\r\n    userGroups[userGroupCount] = ug;\r\n    userGroupCount++;\r\n  }\r\n\r\n  function create_state_contract() private returns(address)\r\n  {\r\n    State s = new State();\r\n    stateContracts[stateContractCount] = address(s);    // Create state contract and add the address to the stateContracts mapping\r\n    stateContractCount++;\r\n    return address(s);\r\n  }\r\n\r\n  function create_oracle_contract() private returns(address)\r\n  {\r\n    Oracle o = new Oracle();\r\n    oracleContracts[oracleContractCount] = address(o);    // Create oracle contract and add the address to the oracleContracts mapping\r\n    oracleContractCount++;\r\n    return address(o);\r\n  }\r\n\r\n  function get_id(string memory _groupname) public view returns(uint)\r\n  {\r\n    for(uint i = 0; i < userGroupCount; i++)\r\n    {\r\n      if(keccak256(abi.encodePacked(userGroups[i].name)) == keccak256(abi.encodePacked(_groupname)))\r\n      {\r\n        return i;\r\n      }\r\n    }\r\n  }\r\n\r\n  function get_group_name(uint _gid) public view returns(string memory)\r\n  {\r\n    return userGroups[_gid].name;\r\n  }\r\n\r\n  function get_state_contract(uint _gid) public view returns(address)\r\n  {\r\n    return userGroups[_gid].stateContract;\r\n  }\r\n\r\n  function get_oracle_contract(uint _gid) public view returns(address)\r\n  {\r\n    return userGroups[_gid].oracleContract;\r\n  }\r\n}\r\n",
  "sourcePath": "/workspace/contracts/Manager.sol",
  "compiler": {
    "name": "solc",
    "version": "0.5.16+commit.9c3226ce.Emscripten.clang"
  },
  "schemaVersion": "3.4.10",
  "updatedAt": "2022-10-18T05:12:48.029Z",
  "devdoc": {
    "methods": {}
  },
  "userdoc": {
    "methods": {}
  }
}