{
  "contractName": "Oracle",
  "abi": [
    {
      "inputs": [],
      "payable": false,
      "stateMutability": "nonpayable",
      "type": "constructor"
    },
    {
      "constant": true,
      "inputs": [],
      "name": "roleCount",
      "outputs": [
        {
          "internalType": "uint256",
          "name": "",
          "type": "uint256"
        }
      ],
      "payable": false,
      "stateMutability": "view",
      "type": "function"
    },
    {
      "constant": true,
      "inputs": [
        {
          "internalType": "uint256",
          "name": "",
          "type": "uint256"
        }
      ],
      "name": "roles",
      "outputs": [
        {
          "internalType": "string",
          "name": "",
          "type": "string"
        }
      ],
      "payable": false,
      "stateMutability": "view",
      "type": "function"
    },
    {
      "constant": true,
      "inputs": [],
      "name": "stateCount",
      "outputs": [
        {
          "internalType": "uint256",
          "name": "",
          "type": "uint256"
        }
      ],
      "payable": false,
      "stateMutability": "view",
      "type": "function"
    },
    {
      "constant": true,
      "inputs": [
        {
          "internalType": "uint256",
          "name": "",
          "type": "uint256"
        }
      ],
      "name": "states",
      "outputs": [
        {
          "internalType": "string",
          "name": "",
          "type": "string"
        }
      ],
      "payable": false,
      "stateMutability": "view",
      "type": "function"
    },
    {
      "constant": true,
      "inputs": [],
      "name": "transitionCount",
      "outputs": [
        {
          "internalType": "uint256",
          "name": "",
          "type": "uint256"
        }
      ],
      "payable": false,
      "stateMutability": "view",
      "type": "function"
    },
    {
      "constant": true,
      "inputs": [
        {
          "internalType": "uint256",
          "name": "",
          "type": "uint256"
        }
      ],
      "name": "transitions",
      "outputs": [
        {
          "internalType": "string",
          "name": "state1",
          "type": "string"
        },
        {
          "internalType": "string",
          "name": "state2",
          "type": "string"
        },
        {
          "internalType": "uint256",
          "name": "role",
          "type": "uint256"
        }
      ],
      "payable": false,
      "stateMutability": "view",
      "type": "function"
    },
    {
      "constant": true,
      "inputs": [],
      "name": "get_name",
      "outputs": [
        {
          "internalType": "string",
          "name": "",
          "type": "string"
        }
      ],
      "payable": false,
      "stateMutability": "view",
      "type": "function"
    },
    {
      "constant": false,
      "inputs": [
        {
          "internalType": "string",
          "name": "_rolename",
          "type": "string"
        },
        {
          "internalType": "uint256",
          "name": "_rcount",
          "type": "uint256"
        }
      ],
      "name": "add_role",
      "outputs": [],
      "payable": false,
      "stateMutability": "nonpayable",
      "type": "function"
    },
    {
      "constant": false,
      "inputs": [
        {
          "internalType": "string",
          "name": "_state",
          "type": "string"
        }
      ],
      "name": "add_state",
      "outputs": [],
      "payable": false,
      "stateMutability": "nonpayable",
      "type": "function"
    },
    {
      "constant": true,
      "inputs": [],
      "name": "get_states",
      "outputs": [
        {
          "internalType": "string",
          "name": "",
          "type": "string"
        }
      ],
      "payable": false,
      "stateMutability": "view",
      "type": "function"
    },
    {
      "constant": true,
      "inputs": [
        {
          "internalType": "string",
          "name": "_state",
          "type": "string"
        }
      ],
      "name": "state_exists",
      "outputs": [
        {
          "internalType": "bool",
          "name": "",
          "type": "bool"
        }
      ],
      "payable": false,
      "stateMutability": "view",
      "type": "function"
    },
    {
      "constant": false,
      "inputs": [
        {
          "internalType": "string",
          "name": "_state1",
          "type": "string"
        },
        {
          "internalType": "string",
          "name": "_state2",
          "type": "string"
        }
      ],
      "name": "add_transition",
      "outputs": [],
      "payable": false,
      "stateMutability": "nonpayable",
      "type": "function"
    },
    {
      "constant": false,
      "inputs": [
        {
          "internalType": "uint256",
          "name": "_tid",
          "type": "uint256"
        },
        {
          "internalType": "uint256",
          "name": "_rid",
          "type": "uint256"
        }
      ],
      "name": "add_transition_role",
      "outputs": [],
      "payable": false,
      "stateMutability": "nonpayable",
      "type": "function"
    },
    {
      "constant": true,
      "inputs": [
        {
          "internalType": "uint256",
          "name": "_loc",
          "type": "uint256"
        }
      ],
      "name": "get_transition",
      "outputs": [
        {
          "internalType": "string",
          "name": "",
          "type": "string"
        }
      ],
      "payable": false,
      "stateMutability": "view",
      "type": "function"
    },
    {
      "constant": true,
      "inputs": [
        {
          "internalType": "string",
          "name": "_state1",
          "type": "string"
        },
        {
          "internalType": "string",
          "name": "_state2",
          "type": "string"
        },
        {
          "internalType": "uint256",
          "name": "_role",
          "type": "uint256"
        }
      ],
      "name": "valid_transition",
      "outputs": [
        {
          "internalType": "bool",
          "name": "",
          "type": "bool"
        }
      ],
      "payable": false,
      "stateMutability": "view",
      "type": "function"
    }
  ],
  "bytecode": "0x608060405260006005553480156200001657600080fd5b506040518060400160405280600f81526020017f4f7261636c6520636f6e7472616374000000000000000000000000000000000081525060009080519060200190620000649291906200006b565b506200011a565b828054600181600116156101000203166002900490600052602060002090601f016020900481019282601f10620000ae57805160ff1916838001178555620000df565b82800160010185558215620000df579182015b82811115620000de578251825591602001919060010190620000c1565b5b509050620000ee9190620000f2565b5090565b6200011791905b8082111562000113576000816000905550600101620000f9565b5090565b90565b61192f806200012a6000396000f3fe608060405234801561001057600080fd5b50600436106100f55760003560e01c80637c77bf1611610097578063c520498611610066578063c5204986146108ad578063c5ccf33f14610972578063ddf9635814610a19578063e594572914610a37576100f5565b80637c77bf16146105225780637ce890041461067457806380eb5f20146107e8578063bfda4a4914610806576100f5565b8063518108d6116100d3578063518108d6146102df57806351e7c81b146102fd5780635acf2808146103d0578063683ace6514610408576100f5565b8063017a9105146100fa57806333d3bce6146101a15780633a525c291461025c575b600080fd5b6101266004803603602081101561011057600080fd5b8101908080359060200190929190505050610aba565b6040518080602001828103825283818151815260200191508051906020019080838360005b8381101561016657808201518184015260208101905061014b565b50505050905090810190601f1680156101935780820380516001836020036101000a031916815260200191505b509250505060405180910390f35b61025a600480360360208110156101b757600080fd5b81019080803590602001906401000000008111156101d457600080fd5b8201836020820111156101e657600080fd5b8035906020019184600183028401116401000000008311171561020857600080fd5b91908080601f016020809104026020016040519081016040528093929190818152602001838380828437600081840152601f19601f820116905080830192505050505050509192919290505050610b6a565b005b610264610ba9565b6040518080602001828103825283818151815260200191508051906020019080838360005b838110156102a4578082015181840152602081019050610289565b50505050905090810190601f1680156102d15780820380516001836020036101000a031916815260200191505b509250505060405180910390f35b6102e7610c4b565b6040518082815260200191505060405180910390f35b6103b66004803603602081101561031357600080fd5b810190808035906020019064010000000081111561033057600080fd5b82018360208201111561034257600080fd5b8035906020019184600183028401116401000000008311171561036457600080fd5b91908080601f016020809104026020016040519081016040528093929190818152602001838380828437600081840152601f19601f820116905080830192505050505050509192919290505050610c51565b604051808215151515815260200191505060405180910390f35b610406600480360360408110156103e657600080fd5b810190808035906020019092919080359060200190929190505050610d89565b005b6104346004803603602081101561041e57600080fd5b8101908080359060200190929190505050610da8565b604051808060200180602001848152602001838103835286818151815260200191508051906020019080838360005b8381101561047e578082015181840152602081019050610463565b50505050905090810190601f1680156104ab5780820380516001836020036101000a031916815260200191505b50838103825285818151815260200191508051906020019080838360005b838110156104e45780820151818401526020810190506104c9565b50505050905090810190601f1680156105115780820380516001836020036101000a031916815260200191505b509550505050505060405180910390f35b6106726004803603604081101561053857600080fd5b810190808035906020019064010000000081111561055557600080fd5b82018360208201111561056757600080fd5b8035906020019184600183028401116401000000008311171561058957600080fd5b91908080601f016020809104026020016040519081016040528093929190818152602001838380828437600081840152601f19601f820116905080830192505050505050509192919290803590602001906401000000008111156105ec57600080fd5b8201836020820111156105fe57600080fd5b8035906020019184600183028401116401000000008311171561062057600080fd5b91908080601f016020809104026020016040519081016040528093929190818152602001838380828437600081840152601f19601f820116905080830192505050505050509192919290505050610f02565b005b6107ce6004803603606081101561068a57600080fd5b81019080803590602001906401000000008111156106a757600080fd5b8201836020820111156106b957600080fd5b803590602001918460018302840111640100000000831117156106db57600080fd5b91908080601f016020809104026020016040519081016040528093929190818152602001838380828437600081840152601f19601f8201169050808301925050505050505091929192908035906020019064010000000081111561073e57600080fd5b82018360208201111561075057600080fd5b8035906020019184600183028401116401000000008311171561077257600080fd5b91908080601f016020809104026020016040519081016040528093929190818152602001838380828437600081840152601f19601f82011690508083019250505050505050919291929080359060200190929190505050610fc2565b604051808215151515815260200191505060405180910390f35b6107f0611242565b6040518082815260200191505060405180910390f35b6108326004803603602081101561081c57600080fd5b8101908080359060200190929190505050611248565b6040518080602001828103825283818151815260200191508051906020019080838360005b83811015610872578082015181840152602081019050610857565b50505050905090810190601f16801561089f5780820380516001836020036101000a031916815260200191505b509250505060405180910390f35b610970600480360360408110156108c357600080fd5b81019080803590602001906401000000008111156108e057600080fd5b8201836020820111156108f257600080fd5b8035906020019184600183028401116401000000008311171561091457600080fd5b91908080601f016020809104026020016040519081016040528093929190818152602001838380828437600081840152601f19601f820116905080830192505050505050509192919290803590602001909291905050506112f8565b005b61099e6004803603602081101561098857600080fd5b8101908080359060200190929190505050611336565b6040518080602001828103825283818151815260200191508051906020019080838360005b838110156109de5780820151818401526020810190506109c3565b50505050905090810190601f168015610a0b5780820380516001836020036101000a031916815260200191505b509250505060405180910390f35b610a216116ad565b6040518082815260200191505060405180910390f35b610a3f6116b3565b6040518080602001828103825283818151815260200191508051906020019080838360005b83811015610a7f578082015181840152602081019050610a64565b50505050905090810190601f168015610aac5780820380516001836020036101000a031916815260200191505b509250505060405180910390f35b60026020528060005260406000206000915090508054600181600116156101000203166002900480601f016020809104026020016040519081016040528092919081815260200182805460018160011615610100020316600290048015610b625780601f10610b3757610100808354040283529160200191610b62565b820191906000526020600020905b815481529060010190602001808311610b4557829003601f168201915b505050505081565b806002600060015481526020019081526020016000209080519060200190610b939291906117b4565b5060016000815480929190600101919050555050565b606060008054600181600116156101000203166002900480601f016020809104026020016040519081016040528092919081815260200182805460018160011615610100020316600290048015610c415780601f10610c1657610100808354040283529160200191610c41565b820191906000526020600020905b815481529060010190602001808311610c2457829003601f168201915b5050505050905090565b60015481565b600080600090505b600154811015610d7e57600260008281526020019081526020016000206040516020018082805460018160011615610100020316600290048015610cd45780601f10610cb2576101008083540402835291820191610cd4565b820191906000526020600020905b815481529060010190602001808311610cc0575b505091505060405160208183030381529060405280519060200120836040516020018082805190602001908083835b60208310610d265780518252602082019150602081019050602083039250610d03565b6001836020036101000a038019825116818451168082178552505050505050905001915050604051602081830303815290604052805190602001201415610d71576001915050610d84565b8080600101915050610c59565b50600090505b919050565b8060046000848152602001908152602001600020600201819055505050565b6004602052806000526040600020600091509050806000018054600181600116156101000203166002900480601f016020809104026020016040519081016040528092919081815260200182805460018160011615610100020316600290048015610e545780601f10610e2957610100808354040283529160200191610e54565b820191906000526020600020905b815481529060010190602001808311610e3757829003601f168201915b505050505090806001018054600181600116156101000203166002900480601f016020809104026020016040519081016040528092919081815260200182805460018160011615610100020316600290048015610ef25780601f10610ec757610100808354040283529160200191610ef2565b820191906000526020600020905b815481529060010190602001808311610ed557829003601f168201915b5050505050908060020154905083565b60001515610f0f83610c51565b15151480610f29575060001515610f2582610c51565b1515145b15610f3357610fbe565b610f3b611834565b828160000181905250818160200181905250806004600060035481526020019081526020016000206000820151816000019080519060200190610f7f929190611855565b506020820151816001019080519060200190610f9c929190611855565b5060408201518160020155905050600360008154809291906001019190505550505b5050565b600080600090505b60035481101561123557846040516020018082805190602001908083835b6020831061100b5780518252602082019150602081019050602083039250610fe8565b6001836020036101000a038019825116818451168082178552505050505050905001915050604051602081830303815290604052805190602001206004600083815260200190815260200160002060000160405160200180828054600181600116156101000203166002900480156110ba5780601f106110985761010080835404028352918201916110ba565b820191906000526020600020905b8154815290600101906020018083116110a6575b505091505060405160208183030381529060405280519060200120141561122857836040516020018082805190602001908083835b6020831061111257805182526020820191506020810190506020830392506110ef565b6001836020036101000a038019825116818451168082178552505050505050905001915050604051602081830303815290604052805190602001206004600083815260200190815260200160002060010160405160200180828054600181600116156101000203166002900480156111c15780601f1061119f5761010080835404028352918201916111c1565b820191906000526020600020905b8154815290600101906020018083116111ad575b50509150506040516020818303038152906040528051906020012014156112275760008314156111f557600191505061123b565b826004600083815260200190815260200160002060020154141561121d57600191505061123b565b600091505061123b565b5b8080600101915050610fca565b50600090505b9392505050565b60035481565b60066020528060005260406000206000915090508054600181600116156101000203166002900480601f0160208091040260200160405190810160405280929190818152602001828054600181600116156101000203166002900480156112f05780601f106112c5576101008083540402835291602001916112f0565b820191906000526020600020905b8154815290600101906020018083116112d357829003601f168201915b505050505081565b8160066000838152602001908152602001600020908051906020019061131f9291906117b4565b506005600081548092919060010191905055505050565b6060600354821061137e576040518060400160405280601981526020017f7472616e736974696f6e20646f6573206e6f742065786973740000000000000081525090506116a8565b6060600460008481526020019081526020016000206000018054600181600116156101000203166002900480601f01602080910402602001604051908101604052809291908181526020018280546001816001161561010002031660029004801561142a5780601f106113ff5761010080835404028352916020019161142a565b820191906000526020600020905b81548152906001019060200180831161140d57829003601f168201915b505050505090506060600460008581526020019081526020016000206001018054600181600116156101000203166002900480601f0160208091040260200160405190810160405280929190818152602001828054600181600116156101000203166002900480156114dd5780601f106114b2576101008083540402835291602001916114dd565b820191906000526020600020905b8154815290600101906020018083116114c057829003601f168201915b5050505050905060606040518060400160405280600481526020017f203d3e20000000000000000000000000000000000000000000000000000000008152509050606083826040516020018083805190602001908083835b602083106115585780518252602082019150602081019050602083039250611535565b6001836020036101000a03801982511681845116808217855250505050505090500182805190602001908083835b602083106115a95780518252602082019150602081019050602083039250611586565b6001836020036101000a03801982511681845116808217855250505050505090500192505050604051602081830303815290604052905080836040516020018083805190602001908083835b6020831061161857805182526020820191506020810190506020830392506115f5565b6001836020036101000a03801982511681845116808217855250505050505090500182805190602001908083835b602083106116695780518252602082019150602081019050602083039250611646565b6001836020036101000a038019825116818451168082178552505050505050905001925050506040516020818303038152906040529050809450505050505b919050565b60055481565b60608060008090505b6001548110156117ac5781600260008381526020019081526020016000206040516020018083805190602001908083835b6020831061171057805182526020820191506020810190506020830392506116ed565b6001836020036101000a038019825116818451168082178552505050505050905001828054600181600116156101000203166002900480156117895780601f10611767576101008083540402835291820191611789565b820191906000526020600020905b815481529060010190602001808311611775575b5050925050506040516020818303038152906040525080806001019150506116bc565b508091505090565b828054600181600116156101000203166002900490600052602060002090601f016020900481019282601f106117f557805160ff1916838001178555611823565b82800160010185558215611823579182015b82811115611822578251825591602001919060010190611807565b5b50905061183091906118d5565b5090565b60405180606001604052806060815260200160608152602001600081525090565b828054600181600116156101000203166002900490600052602060002090601f016020900481019282601f1061189657805160ff19168380011785556118c4565b828001600101855582156118c4579182015b828111156118c35782518255916020019190600101906118a8565b5b5090506118d191906118d5565b5090565b6118f791905b808211156118f35760008160009055506001016118db565b5090565b9056fea265627a7a72315820514e615aff6db9915bdc71fc8769463ecc1f837eecf16c9504c20cfa1c90d6f664736f6c63430005100032",
  "source": "pragma solidity ^0.5.0;\r\n\r\ncontract Oracle {\r\n  string name;\r\n\r\n  uint public stateCount;\r\n  mapping(uint => string) public states;\r\n  \r\n  uint public transitionCount;\r\n  mapping(uint => Transition) public transitions;\r\n  \r\n  uint public roleCount = 0;\r\n  mapping(uint => string) public roles;\r\n\r\n  struct Transition {\r\n    string state1; \r\n    string state2;\r\n    uint role;\r\n  }\r\n\r\n  constructor() public {\r\n    name = \"Oracle contract\";\r\n  }\r\n\r\n  function get_name() public view returns(string memory)\r\n  {\r\n    return name;\r\n  }\r\n  \r\n  function add_role(string memory _rolename, uint _rcount) public\r\n  {\r\n    roles[_rcount] = _rolename;\r\n    roleCount++;\r\n  }\r\n\r\n  function add_state(string memory _state) public\r\n  {\r\n    states[stateCount] = _state;\r\n    stateCount++;\r\n  }\r\n\r\n  function get_states() public view returns(string memory)\r\n  {\r\n    string memory retval;\r\n    for(uint i = 0; i < stateCount; i++)\r\n    {\r\n      abi.encodePacked(retval, states[i]);\r\n    }\r\n    return retval;\r\n  }\r\n\r\n  function state_exists(string memory _state) public view returns(bool)\r\n  {\r\n    for(uint i = 0; i < stateCount; i++)\r\n    {\r\n      if(keccak256(abi.encodePacked(_state)) == keccak256(abi.encodePacked(states[i])))\r\n      return true;\r\n    }\r\n    return false;\r\n  }\r\n  function add_transition(string memory _state1, string memory _state2) public\r\n  {\r\n    if(state_exists(_state1) == false || state_exists(_state2) == false)  // test state exists\r\n    {\r\n      return; // need to emit success/failure events\r\n    }\r\n    Transition memory t;\r\n    t.state1 = _state1;\r\n    t.state2 = _state2;\r\n    transitions[transitionCount] = t;\r\n    transitionCount++;\r\n  }\r\n  \r\n  function add_transition_role(uint _tid, uint _rid) public\r\n  {\r\n    transitions[_tid].role = _rid;\r\n  }\r\n\r\n  function get_transition(uint _loc) public view returns (string memory)\r\n  {\r\n    if(_loc >= transitionCount)\r\n    {\r\n      return \"transition does not exist\"; // Need event emitted here\r\n    }\r\n    string memory first = transitions[_loc].state1;\r\n    string memory third = transitions[_loc].state2;\r\n\r\n    string memory second = \" => \";\r\n\r\n    string memory retval = string(abi.encodePacked(first, second));\r\n    retval = string(abi.encodePacked(retval, third));\r\n\r\n    return retval;\r\n  }\r\n\r\n  function valid_transition(string memory _state1, string memory _state2, uint _role) public view returns (bool)\r\n  {\r\n    for(uint i = 0; i < transitionCount; i++)\r\n    {\r\n      if(keccak256(abi.encodePacked(transitions[i].state1)) == keccak256(abi.encodePacked(_state1)))    // If the first state is found in the transition\r\n      {\r\n        if(keccak256(abi.encodePacked(transitions[i].state2)) == keccak256(abi.encodePacked(_state2)))    // Check the second state\r\n        {\r\n          if(_role == 0)                            //if role is admin or a valid role return true\r\n          {\r\n              return true;\r\n          }\r\n          else if(transitions[i].role == _role)\r\n          {\r\n              return true;\r\n          }\r\n          else\r\n          {\r\n              return false;\r\n          }\r\n        }\r\n      }\r\n    }\r\n    return false;\r\n  }\r\n\r\n}\r\n",
  "sourcePath": "/workspace/contracts/Oracle.sol",
  "compiler": {
    "name": "solc",
    "version": "0.5.16+commit.9c3226ce.Emscripten.clang"
  },
  "schemaVersion": "3.4.10",
  "updatedAt": "2022-10-18T05:12:48.040Z",
  "devdoc": {
    "methods": {}
  },
  "userdoc": {
    "methods": {}
  }
}