{
  "contractName": "State",
  "abi": [
    {
      "inputs": [],
      "payable": false,
      "stateMutability": "nonpayable",
      "type": "constructor"
    },
    {
      "constant": true,
      "inputs": [],
      "name": "assetCount",
      "outputs": [
        {
          "internalType": "uint256",
          "name": "",
          "type": "uint256"
        }
      ],
      "payable": false,
      "stateMutability": "view",
      "type": "function"
    },
    {
      "constant": true,
      "inputs": [
        {
          "internalType": "uint256",
          "name": "",
          "type": "uint256"
        }
      ],
      "name": "assets",
      "outputs": [
        {
          "internalType": "uint256",
          "name": "id",
          "type": "uint256"
        },
        {
          "internalType": "string",
          "name": "name",
          "type": "string"
        },
        {
          "internalType": "string",
          "name": "operating_system",
          "type": "string"
        },
        {
          "internalType": "string",
          "name": "software_name",
          "type": "string"
        },
        {
          "internalType": "string",
          "name": "state",
          "type": "string"
        },
        {
          "internalType": "string",
          "name": "hash",
          "type": "string"
        },
        {
          "internalType": "string",
          "name": "device",
          "type": "string"
        }
      ],
      "payable": false,
      "stateMutability": "view",
      "type": "function"
    },
    {
      "constant": true,
      "inputs": [],
      "name": "finalState",
      "outputs": [
        {
          "internalType": "string",
          "name": "",
          "type": "string"
        }
      ],
      "payable": false,
      "stateMutability": "view",
      "type": "function"
    },
    {
      "constant": true,
      "inputs": [],
      "name": "initialState",
      "outputs": [
        {
          "internalType": "string",
          "name": "",
          "type": "string"
        }
      ],
      "payable": false,
      "stateMutability": "view",
      "type": "function"
    },
    {
      "constant": true,
      "inputs": [],
      "name": "roleCount",
      "outputs": [
        {
          "internalType": "uint256",
          "name": "",
          "type": "uint256"
        }
      ],
      "payable": false,
      "stateMutability": "view",
      "type": "function"
    },
    {
      "constant": true,
      "inputs": [
        {
          "internalType": "uint256",
          "name": "",
          "type": "uint256"
        }
      ],
      "name": "roles",
      "outputs": [
        {
          "internalType": "string",
          "name": "",
          "type": "string"
        }
      ],
      "payable": false,
      "stateMutability": "view",
      "type": "function"
    },
    {
      "constant": true,
      "inputs": [],
      "name": "userCount",
      "outputs": [
        {
          "internalType": "uint256",
          "name": "",
          "type": "uint256"
        }
      ],
      "payable": false,
      "stateMutability": "view",
      "type": "function"
    },
    {
      "constant": true,
      "inputs": [
        {
          "internalType": "uint256",
          "name": "",
          "type": "uint256"
        }
      ],
      "name": "users",
      "outputs": [
        {
          "internalType": "uint256",
          "name": "id",
          "type": "uint256"
        },
        {
          "internalType": "string",
          "name": "blockchain_address",
          "type": "string"
        },
        {
          "internalType": "uint256",
          "name": "user_role",
          "type": "uint256"
        }
      ],
      "payable": false,
      "stateMutability": "view",
      "type": "function"
    },
    {
      "constant": false,
      "inputs": [
        {
          "internalType": "string",
          "name": "_rolename",
          "type": "string"
        }
      ],
      "name": "add_role",
      "outputs": [],
      "payable": false,
      "stateMutability": "nonpayable",
      "type": "function"
    },
    {
      "constant": false,
      "inputs": [
        {
          "internalType": "string",
          "name": "_address",
          "type": "string"
        },
        {
          "internalType": "uint256",
          "name": "_roleid",
          "type": "uint256"
        }
      ],
      "name": "add_user",
      "outputs": [],
      "payable": false,
      "stateMutability": "nonpayable",
      "type": "function"
    },
    {
      "constant": false,
      "inputs": [
        {
          "internalType": "uint256",
          "name": "_uid",
          "type": "uint256"
        },
        {
          "internalType": "uint256",
          "name": "_rid",
          "type": "uint256"
        }
      ],
      "name": "add_role_to_user",
      "outputs": [],
      "payable": false,
      "stateMutability": "nonpayable",
      "type": "function"
    },
    {
      "constant": true,
      "inputs": [],
      "name": "get_name",
      "outputs": [
        {
          "internalType": "string",
          "name": "",
          "type": "string"
        }
      ],
      "payable": false,
      "stateMutability": "view",
      "type": "function"
    },
    {
      "constant": true,
      "inputs": [],
      "name": "get_owner",
      "outputs": [
        {
          "internalType": "address",
          "name": "",
          "type": "address"
        }
      ],
      "payable": false,
      "stateMutability": "view",
      "type": "function"
    },
    {
      "constant": false,
      "inputs": [
        {
          "internalType": "address",
          "name": "_oracle",
          "type": "address"
        }
      ],
      "name": "set_oracle",
      "outputs": [],
      "payable": false,
      "stateMutability": "nonpayable",
      "type": "function"
    },
    {
      "constant": true,
      "inputs": [],
      "name": "get_oracle",
      "outputs": [
        {
          "internalType": "address",
          "name": "",
          "type": "address"
        }
      ],
      "payable": false,
      "stateMutability": "view",
      "type": "function"
    },
    {
      "constant": false,
      "inputs": [
        {
          "internalType": "string",
          "name": "_newinitial",
          "type": "string"
        }
      ],
      "name": "set_initial",
      "outputs": [],
      "payable": false,
      "stateMutability": "nonpayable",
      "type": "function"
    },
    {
      "constant": false,
      "inputs": [
        {
          "internalType": "string",
          "name": "_newfinal",
          "type": "string"
        }
      ],
      "name": "set_final",
      "outputs": [],
      "payable": false,
      "stateMutability": "nonpayable",
      "type": "function"
    },
    {
      "constant": false,
      "inputs": [
        {
          "internalType": "string",
          "name": "_name",
          "type": "string"
        },
        {
          "internalType": "string",
          "name": "_hash",
          "type": "string"
        },
        {
          "internalType": "string",
          "name": "_operating_system",
          "type": "string"
        },
        {
          "internalType": "string",
          "name": "_software_name",
          "type": "string"
        }
      ],
      "name": "add_asset",
      "outputs": [],
      "payable": false,
      "stateMutability": "nonpayable",
      "type": "function"
    },
    {
      "constant": false,
      "inputs": [
        {
          "internalType": "uint256",
          "name": "_assetid",
          "type": "uint256"
        }
      ],
      "name": "copy_patch",
      "outputs": [],
      "payable": false,
      "stateMutability": "nonpayable",
      "type": "function"
    },
    {
      "constant": false,
      "inputs": [
        {
          "internalType": "uint256",
          "name": "_assetid",
          "type": "uint256"
        },
        {
          "internalType": "string",
          "name": "_device_name",
          "type": "string"
        }
      ],
      "name": "apply_device",
      "outputs": [],
      "payable": false,
      "stateMutability": "nonpayable",
      "type": "function"
    },
    {
      "constant": true,
      "inputs": [
        {
          "internalType": "uint256",
          "name": "_assetid",
          "type": "uint256"
        }
      ],
      "name": "get_asset_name",
      "outputs": [
        {
          "internalType": "string",
          "name": "",
          "type": "string"
        }
      ],
      "payable": false,
      "stateMutability": "view",
      "type": "function"
    },
    {
      "constant": true,
      "inputs": [
        {
          "internalType": "uint256",
          "name": "_assetid",
          "type": "uint256"
        }
      ],
      "name": "get_current_state",
      "outputs": [
        {
          "internalType": "string",
          "name": "",
          "type": "string"
        }
      ],
      "payable": false,
      "stateMutability": "view",
      "type": "function"
    },
    {
      "constant": true,
      "inputs": [
        {
          "internalType": "uint256",
          "name": "_assetid",
          "type": "uint256"
        }
      ],
      "name": "get_operating_system",
      "outputs": [
        {
          "internalType": "string",
          "name": "",
          "type": "string"
        }
      ],
      "payable": false,
      "stateMutability": "view",
      "type": "function"
    },
    {
      "constant": true,
      "inputs": [
        {
          "internalType": "uint256",
          "name": "_assetid",
          "type": "uint256"
        }
      ],
      "name": "get_software_name",
      "outputs": [
        {
          "internalType": "string",
          "name": "",
          "type": "string"
        }
      ],
      "payable": false,
      "stateMutability": "view",
      "type": "function"
    },
    {
      "constant": true,
      "inputs": [
        {
          "internalType": "uint256",
          "name": "_assetid",
          "type": "uint256"
        }
      ],
      "name": "get_asset_device",
      "outputs": [
        {
          "internalType": "string",
          "name": "",
          "type": "string"
        }
      ],
      "payable": false,
      "stateMutability": "view",
      "type": "function"
    },
    {
      "constant": true,
      "inputs": [
        {
          "internalType": "uint256",
          "name": "_assetid",
          "type": "uint256"
        },
        {
          "internalType": "string",
          "name": "_hash",
          "type": "string"
        }
      ],
      "name": "check_hash",
      "outputs": [
        {
          "internalType": "bool",
          "name": "",
          "type": "bool"
        }
      ],
      "payable": false,
      "stateMutability": "view",
      "type": "function"
    },
    {
      "constant": false,
      "inputs": [
        {
          "internalType": "uint256",
          "name": "_assetid",
          "type": "uint256"
        },
        {
          "internalType": "string",
          "name": "_targetstate",
          "type": "string"
        },
        {
          "internalType": "uint256",
          "name": "_role",
          "type": "uint256"
        },
        {
          "internalType": "string",
          "name": "_hash",
          "type": "string"
        }
      ],
      "name": "transition",
      "outputs": [],
      "payable": false,
      "stateMutability": "nonpayable",
      "type": "function"
    }
  ],
  "bytecode": "0x6080604052739838a5e2cb634b8852548f0449fe0a6d116aa232600160006101000a81548173ffffffffffffffffffffffffffffffffffffffff021916908373ffffffffffffffffffffffffffffffffffffffff1602179055506040518060400160405280600f81526020017f64656661756c7420696e697469616c000000000000000000000000000000000081525060029080519060200190620000a692919062000166565b506040518060400160405280600d81526020017f64656661756c742066696e616c0000000000000000000000000000000000000081525060039080519060200190620000f492919062000166565b506000600555600060075560006009553480156200011157600080fd5b506040518060400160405280600e81526020017f537461746520636f6e7472616374000000000000000000000000000000000000815250600090805190602001906200015f92919062000166565b5062000215565b828054600181600116156101000203166002900490600052602060002090601f016020900481019282601f10620001a957805160ff1916838001178555620001da565b82800160010185558215620001da579182015b82811115620001d9578251825591602001919060010190620001bc565b5b509050620001e99190620001ed565b5090565b6200021291905b808211156200020e576000816000905550600101620001f4565b5090565b90565b612f5280620002256000396000f3fe608060405234801561001057600080fd5b50600436106101a95760003560e01c8063648406b9116100f9578063ddf9635811610097578063eafe7a7411610071578063eafe7a7414611259578063ee16d3c014611277578063eefc8ab714611332578063f42271041461140f576101a9565b8063ddf963581461102e578063e2183e631461104c578063e2889a16146111b2576101a9565b8063a91a5d39116100d3578063a91a5d3914610bd2578063bd4f3b8314610c79578063bfda4a4914610cbd578063cf35bdd014610d64576101a9565b8063648406b914610a5657806394eb499914610a84578063a1bd8e8314610b2b576101a9565b80632561ef45116101665780634d278ea7116101405780634d278ea7146105dd578063590fa6f81461085d57806359282154146108e05780636274ecc01461099b576101a9565b80632561ef45146103e0578063365b98b2146104a55780633a525c291461055a576101a9565b806307973ccf146101ae5780630ac298dc146101cc57806318074c68146102165780631d3e95c51461024e5780631ec097c61461031357806322f3099c1461035d575b600080fd5b6101b66114b6565b6040518082815260200191505060405180910390f35b6101d46114bc565b604051808273ffffffffffffffffffffffffffffffffffffffff1673ffffffffffffffffffffffffffffffffffffffff16815260200191505060405180910390f35b61024c6004803603604081101561022c57600080fd5b8101908080359060200190929190803590602001909291905050506114e6565b005b6103116004803603604081101561026457600080fd5b810190808035906020019064010000000081111561028157600080fd5b82018360208201111561029357600080fd5b803590602001918460018302840111640100000000831117156102b557600080fd5b91908080601f016020809104026020016040519081016040528093929190818152602001838380828437600081840152601f19601f82011690508083019250505050505050919291929080359060200190929190505050611505565b005b61031b61158d565b604051808273ffffffffffffffffffffffffffffffffffffffff1673ffffffffffffffffffffffffffffffffffffffff16815260200191505060405180910390f35b6103656115b7565b6040518080602001828103825283818151815260200191508051906020019080838360005b838110156103a557808201518184015260208101905061038a565b50505050905090810190601f1680156103d25780820380516001836020036101000a031916815260200191505b509250505060405180910390f35b6104a3600480360360408110156103f657600080fd5b81019080803590602001909291908035906020019064010000000081111561041d57600080fd5b82018360208201111561042f57600080fd5b8035906020019184600183028401116401000000008311171561045157600080fd5b91908080601f016020809104026020016040519081016040528093929190818152602001838380828437600081840152601f19601f820116905080830192505050505050509192919290505050611655565b005b6104d1600480360360208110156104bb57600080fd5b8101908080359060200190929190505050611684565b6040518084815260200180602001838152602001828103825284818151815260200191508051906020019080838360005b8381101561051d578082015181840152602081019050610502565b50505050905090810190601f16801561054a5780820380516001836020036101000a031916815260200191505b5094505050505060405180910390f35b610562611746565b6040518080602001828103825283818151815260200191508051906020019080838360005b838110156105a2578082015181840152602081019050610587565b50505050905090810190601f1680156105cf5780820380516001836020036101000a031916815260200191505b509250505060405180910390f35b61085b600480360360808110156105f357600080fd5b810190808035906020019064010000000081111561061057600080fd5b82018360208201111561062257600080fd5b8035906020019184600183028401116401000000008311171561064457600080fd5b91908080601f016020809104026020016040519081016040528093929190818152602001838380828437600081840152601f19601f820116905080830192505050505050509192919290803590602001906401000000008111156106a757600080fd5b8201836020820111156106b957600080fd5b803590602001918460018302840111640100000000831117156106db57600080fd5b91908080601f016020809104026020016040519081016040528093929190818152602001838380828437600081840152601f19601f8201169050808301925050505050505091929192908035906020019064010000000081111561073e57600080fd5b82018360208201111561075057600080fd5b8035906020019184600183028401116401000000008311171561077257600080fd5b91908080601f016020809104026020016040519081016040528093929190818152602001838380828437600081840152601f19601f820116905080830192505050505050509192919290803590602001906401000000008111156107d557600080fd5b8201836020820111156107e757600080fd5b8035906020019184600183028401116401000000008311171561080957600080fd5b91908080601f016020809104026020016040519081016040528093929190818152602001838380828437600081840152601f19601f8201169050808301925050505050505091929192905050506117e8565b005b6108656119eb565b6040518080602001828103825283818151815260200191508051906020019080838360005b838110156108a557808201518184015260208101905061088a565b50505050905090810190601f1680156108d25780820380516001836020036101000a031916815260200191505b509250505060405180910390f35b610999600480360360208110156108f657600080fd5b810190808035906020019064010000000081111561091357600080fd5b82018360208201111561092557600080fd5b8035906020019184600183028401116401000000008311171561094757600080fd5b91908080601f016020809104026020016040519081016040528093929190818152602001838380828437600081840152601f19601f820116905080830192505050505050509192919290505050611a89565b005b610a54600480360360208110156109b157600080fd5b81019080803590602001906401000000008111156109ce57600080fd5b8201836020820111156109e057600080fd5b80359060200191846001830284011164010000000083111715610a0257600080fd5b91908080601f016020809104026020016040519081016040528093929190818152602001838380828437600081840152601f19601f820116905080830192505050505050509192919290505050611bca565b005b610a8260048036036020811015610a6c57600080fd5b8101908080359060200190929190505050611be4565b005b610ab060048036036020811015610a9a57600080fd5b81019080803590602001909291905050506120b0565b6040518080602001828103825283818151815260200191508051906020019080838360005b83811015610af0578082015181840152602081019050610ad5565b50505050905090810190601f168015610b1d5780820380516001836020036101000a031916815260200191505b509250505060405180910390f35b610b5760048036036020811015610b4157600080fd5b8101908080359060200190929190505050612168565b6040518080602001828103825283818151815260200191508051906020019080838360005b83811015610b97578082015181840152602081019050610b7c565b50505050905090810190601f168015610bc45780820380516001836020036101000a031916815260200191505b509250505060405180910390f35b610bfe60048036036020811015610be857600080fd5b8101908080359060200190929190505050612220565b6040518080602001828103825283818151815260200191508051906020019080838360005b83811015610c3e578082015181840152602081019050610c23565b50505050905090810190601f168015610c6b5780820380516001836020036101000a031916815260200191505b509250505060405180910390f35b610cbb60048036036020811015610c8f57600080fd5b81019080803573ffffffffffffffffffffffffffffffffffffffff1690602001909291905050506122d8565b005b610ce960048036036020811015610cd357600080fd5b810190808035906020019092919050505061231c565b6040518080602001828103825283818151815260200191508051906020019080838360005b83811015610d29578082015181840152602081019050610d0e565b50505050905090810190601f168015610d565780820380516001836020036101000a031916815260200191505b509250505060405180910390f35b610d9060048036036020811015610d7a57600080fd5b81019080803590602001909291905050506123cc565b6040518088815260200180602001806020018060200180602001806020018060200187810387528d818151815260200191508051906020019080838360005b83811015610dea578082015181840152602081019050610dcf565b50505050905090810190601f168015610e175780820380516001836020036101000a031916815260200191505b5087810386528c818151815260200191508051906020019080838360005b83811015610e50578082015181840152602081019050610e35565b50505050905090810190601f168015610e7d5780820380516001836020036101000a031916815260200191505b5087810385528b818151815260200191508051906020019080838360005b83811015610eb6578082015181840152602081019050610e9b565b50505050905090810190601f168015610ee35780820380516001836020036101000a031916815260200191505b5087810384528a818151815260200191508051906020019080838360005b83811015610f1c578082015181840152602081019050610f01565b50505050905090810190601f168015610f495780820380516001836020036101000a031916815260200191505b50878103835289818151815260200191508051906020019080838360005b83811015610f82578082015181840152602081019050610f67565b50505050905090810190601f168015610faf5780820380516001836020036101000a031916815260200191505b50878103825288818151815260200191508051906020019080838360005b83811015610fe8578082015181840152602081019050610fcd565b50505050905090810190601f1680156110155780820380516001836020036101000a031916815260200191505b509d505050505050505050505050505060405180910390f35b61103661279e565b6040518082815260200191505060405180910390f35b6111b06004803603608081101561106257600080fd5b81019080803590602001909291908035906020019064010000000081111561108957600080fd5b82018360208201111561109b57600080fd5b803590602001918460018302840111640100000000831117156110bd57600080fd5b91908080601f016020809104026020016040519081016040528093929190818152602001838380828437600081840152601f19601f820116905080830192505050505050509192919290803590602001909291908035906020019064010000000081111561112a57600080fd5b82018360208201111561113c57600080fd5b8035906020019184600183028401116401000000008311171561115e57600080fd5b91908080601f016020809104026020016040519081016040528093929190818152602001838380828437600081840152601f19601f8201169050808301925050505050505091929192905050506127a4565b005b6111de600480360360208110156111c857600080fd5b8101908080359060200190929190505050612a55565b6040518080602001828103825283818151815260200191508051906020019080838360005b8381101561121e578082015181840152602081019050611203565b50505050905090810190601f16801561124b5780820380516001836020036101000a031916815260200191505b509250505060405180910390f35b611261612b0d565b6040518082815260200191505060405180910390f35b6113306004803603602081101561128d57600080fd5b81019080803590602001906401000000008111156112aa57600080fd5b8201836020820111156112bc57600080fd5b803590602001918460018302840111640100000000831117156112de57600080fd5b91908080601f016020809104026020016040519081016040528093929190818152602001838380828437600081840152601f19601f820116905080830192505050505050509192919290505050612b13565b005b6113f56004803603604081101561134857600080fd5b81019080803590602001909291908035906020019064010000000081111561136f57600080fd5b82018360208201111561138157600080fd5b803590602001918460018302840111640100000000831117156113a357600080fd5b91908080601f016020809104026020016040519081016040528093929190818152602001838380828437600081840152601f19601f820116905080830192505050505050509192919290505050612b2d565b604051808215151515815260200191505060405180910390f35b61143b6004803603602081101561142557600080fd5b8101908080359060200190929190505050612ce2565b6040518080602001828103825283818151815260200191508051906020019080838360005b8381101561147b578082015181840152602081019050611460565b50505050905090810190601f1680156114a85780820380516001836020036101000a031916815260200191505b509250505060405180910390f35b60075481565b6000600160009054906101000a900473ffffffffffffffffffffffffffffffffffffffff16905090565b8060086000848152602001908152602001600020600201819055505050565b61150d612d9a565b6007548160000181815250508281602001819052508181604001818152505080600860006007548152602001908152602001600020600082015181600001556020820151816001019080519060200190611568929190612dbb565b5060408201518160020155905050600760008154809291906001019190505550505050565b6000600460009054906101000a900473ffffffffffffffffffffffffffffffffffffffff16905090565b60038054600181600116156101000203166002900480601f01602080910402602001604051908101604052809291908181526020018280546001816001161561010002031660029004801561164d5780601f106116225761010080835404028352916020019161164d565b820191906000526020600020905b81548152906001019060200180831161163057829003601f168201915b505050505081565b8060066000848152602001908152602001600020600601908051906020019061167f929190612e3b565b505050565b6008602052806000526040600020600091509050806000015490806001018054600181600116156101000203166002900480601f0160208091040260200160405190810160405280929190818152602001828054600181600116156101000203166002900480156117365780601f1061170b57610100808354040283529160200191611736565b820191906000526020600020905b81548152906001019060200180831161171957829003601f168201915b5050505050908060020154905083565b606060008054600181600116156101000203166002900480601f0160208091040260200160405190810160405280929190818152602001828054600181600116156101000203166002900480156117de5780601f106117b3576101008083540402835291602001916117de565b820191906000526020600020905b8154815290600101906020018083116117c157829003601f168201915b5050505050905090565b6117f0612ebb565b84816020018190525060028054600181600116156101000203166002900480601f01602080910402602001604051908101604052809291908181526020018280546001816001161561010002031660029004801561188f5780601f106118645761010080835404028352916020019161188f565b820191906000526020600020905b81548152906001019060200180831161187257829003601f168201915b50505050508160800181905250600554816000018181525050838160a001819052508281604001819052508181606001819052506040518060400160405280600481526020017f6e756c6c000000000000000000000000000000000000000000000000000000008152508160c001819052508060066000600554815260200190815260200160002060008201518160000155602082015181600101908051906020019061193d929190612dbb565b50604082015181600201908051906020019061195a929190612dbb565b506060820151816003019080519060200190611977929190612dbb565b506080820151816004019080519060200190611994929190612dbb565b5060a08201518160050190805190602001906119b1929190612dbb565b5060c08201518160060190805190602001906119ce929190612dbb565b509050506005600081548092919060010191905055505050505050565b60028054600181600116156101000203166002900480601f016020809104026020016040519081016040528092919081815260200182805460018160011615610100020316600290048015611a815780601f10611a5657610100808354040283529160200191611a81565b820191906000526020600020905b815481529060010190602001808311611a6457829003601f168201915b505050505081565b80600a600060095481526020019081526020016000209080519060200190611ab2929190612e3b565b506000600460009054906101000a900473ffffffffffffffffffffffffffffffffffffffff1690508073ffffffffffffffffffffffffffffffffffffffff1663c5204986836009546040518363ffffffff1660e01b81526004018080602001838152602001828103825284818151815260200191508051906020019080838360005b83811015611b4f578082015181840152602081019050611b34565b50505050905090810190601f168015611b7c5780820380516001836020036101000a031916815260200191505b509350505050600060405180830381600087803b158015611b9c57600080fd5b505af1158015611bb0573d6000803e3d6000fd5b505050506009600081548092919060010191905055505050565b8060029080519060200190611be0929190612e3b565b5050565b611bec612ebb565b600660008381526020019081526020016000206001018054600181600116156101000203166002900480601f016020809104026020016040519081016040528092919081815260200182805460018160011615610100020316600290048015611c965780601f10611c6b57610100808354040283529160200191611c96565b820191906000526020600020905b815481529060010190602001808311611c7957829003601f168201915b50505050508160200181905250600660008381526020019081526020016000206004018054600181600116156101000203166002900480601f016020809104026020016040519081016040528092919081815260200182805460018160011615610100020316600290048015611d4d5780601f10611d2257610100808354040283529160200191611d4d565b820191906000526020600020905b815481529060010190602001808311611d3057829003601f168201915b50505050508160800181905250600554816000018181525050600660008381526020019081526020016000206005018054600181600116156101000203166002900480601f016020809104026020016040519081016040528092919081815260200182805460018160011615610100020316600290048015611e105780601f10611de557610100808354040283529160200191611e10565b820191906000526020600020905b815481529060010190602001808311611df357829003601f168201915b50505050508160a00181905250600660008381526020019081526020016000206002018054600181600116156101000203166002900480601f016020809104026020016040519081016040528092919081815260200182805460018160011615610100020316600290048015611ec75780601f10611e9c57610100808354040283529160200191611ec7565b820191906000526020600020905b815481529060010190602001808311611eaa57829003601f168201915b50505050508160400181905250600660008381526020019081526020016000206003018054600181600116156101000203166002900480601f016020809104026020016040519081016040528092919081815260200182805460018160011615610100020316600290048015611f7e5780601f10611f5357610100808354040283529160200191611f7e565b820191906000526020600020905b815481529060010190602001808311611f6157829003601f168201915b505050505081606001819052506040518060400160405280600481526020017f6e756c6c000000000000000000000000000000000000000000000000000000008152508160c0018190525080600660006005548152602001908152602001600020600082015181600001556020820151816001019080519060200190612005929190612dbb565b506040820151816002019080519060200190612022929190612dbb565b50606082015181600301908051906020019061203f929190612dbb565b50608082015181600401908051906020019061205c929190612dbb565b5060a0820151816005019080519060200190612079929190612dbb565b5060c0820151816006019080519060200190612096929190612dbb565b509050506005600081548092919060010191905055505050565b6060600660008381526020019081526020016000206006018054600181600116156101000203166002900480601f01602080910402602001604051908101604052809291908181526020018280546001816001161561010002031660029004801561215c5780601f106121315761010080835404028352916020019161215c565b820191906000526020600020905b81548152906001019060200180831161213f57829003601f168201915b50505050509050919050565b6060600660008381526020019081526020016000206002018054600181600116156101000203166002900480601f0160208091040260200160405190810160405280929190818152602001828054600181600116156101000203166002900480156122145780601f106121e957610100808354040283529160200191612214565b820191906000526020600020905b8154815290600101906020018083116121f757829003601f168201915b50505050509050919050565b6060600660008381526020019081526020016000206003018054600181600116156101000203166002900480601f0160208091040260200160405190810160405280929190818152602001828054600181600116156101000203166002900480156122cc5780601f106122a1576101008083540402835291602001916122cc565b820191906000526020600020905b8154815290600101906020018083116122af57829003601f168201915b50505050509050919050565b80600460006101000a81548173ffffffffffffffffffffffffffffffffffffffff021916908373ffffffffffffffffffffffffffffffffffffffff16021790555050565b600a6020528060005260406000206000915090508054600181600116156101000203166002900480601f0160208091040260200160405190810160405280929190818152602001828054600181600116156101000203166002900480156123c45780601f10612399576101008083540402835291602001916123c4565b820191906000526020600020905b8154815290600101906020018083116123a757829003601f168201915b505050505081565b6006602052806000526040600020600091509050806000015490806001018054600181600116156101000203166002900480601f01602080910402602001604051908101604052809291908181526020018280546001816001161561010002031660029004801561247e5780601f106124535761010080835404028352916020019161247e565b820191906000526020600020905b81548152906001019060200180831161246157829003601f168201915b505050505090806002018054600181600116156101000203166002900480601f01602080910402602001604051908101604052809291908181526020018280546001816001161561010002031660029004801561251c5780601f106124f15761010080835404028352916020019161251c565b820191906000526020600020905b8154815290600101906020018083116124ff57829003601f168201915b505050505090806003018054600181600116156101000203166002900480601f0160208091040260200160405190810160405280929190818152602001828054600181600116156101000203166002900480156125ba5780601f1061258f576101008083540402835291602001916125ba565b820191906000526020600020905b81548152906001019060200180831161259d57829003601f168201915b505050505090806004018054600181600116156101000203166002900480601f0160208091040260200160405190810160405280929190818152602001828054600181600116156101000203166002900480156126585780601f1061262d57610100808354040283529160200191612658565b820191906000526020600020905b81548152906001019060200180831161263b57829003601f168201915b505050505090806005018054600181600116156101000203166002900480601f0160208091040260200160405190810160405280929190818152602001828054600181600116156101000203166002900480156126f65780601f106126cb576101008083540402835291602001916126f6565b820191906000526020600020905b8154815290600101906020018083116126d957829003601f168201915b505050505090806006018054600181600116156101000203166002900480601f0160208091040260200160405190810160405280929190818152602001828054600181600116156101000203166002900480156127945780601f1061276957610100808354040283529160200191612794565b820191906000526020600020905b81548152906001019060200180831161277757829003601f168201915b5050505050905087565b60095481565b60006127b08583612b2d565b90506000151581151514156127c55750612a4f565b6060600660008781526020019081526020016000206004018054600181600116156101000203166002900480601f0160208091040260200160405190810160405280929190818152602001828054600181600116156101000203166002900480156128715780601f1061284657610100808354040283529160200191612871565b820191906000526020600020905b81548152906001019060200180831161285457829003601f168201915b505050505090506000600460009054906101000a900473ffffffffffffffffffffffffffffffffffffffff16905060008173ffffffffffffffffffffffffffffffffffffffff16637ce890048489896040518463ffffffff1660e01b8152600401808060200180602001848152602001838103835286818151815260200191508051906020019080838360005b838110156129195780820151818401526020810190506128fe565b50505050905090810190601f1680156129465780820380516001836020036101000a031916815260200191505b50838103825285818151815260200191508051906020019080838360005b8381101561297f578082015181840152602081019050612964565b50505050905090810190601f1680156129ac5780820380516001836020036101000a031916815260200191505b509550505050505060206040518083038186803b1580156129cc57600080fd5b505afa1580156129e0573d6000803e3d6000fd5b505050506040513d60208110156129f657600080fd5b81019080805190602001909291905050509050600015158115151415612a1f5750505050612a4f565b86600660008a81526020019081526020016000206004019080519060200190612a49929190612e3b565b50505050505b50505050565b6060600660008381526020019081526020016000206001018054600181600116156101000203166002900480601f016020809104026020016040519081016040528092919081815260200182805460018160011615610100020316600290048015612b015780601f10612ad657610100808354040283529160200191612b01565b820191906000526020600020905b815481529060010190602001808311612ae457829003601f168201915b50505050509050919050565b60055481565b8060039080519060200190612b29929190612e3b565b5050565b60006060600660008581526020019081526020016000206005018054600181600116156101000203166002900480601f016020809104026020016040519081016040528092919081815260200182805460018160011615610100020316600290048015612bdb5780601f10612bb057610100808354040283529160200191612bdb565b820191906000526020600020905b815481529060010190602001808311612bbe57829003601f168201915b50505050509050826040516020018082805190602001908083835b60208310612c195780518252602082019150602081019050602083039250612bf6565b6001836020036101000a03801982511681845116808217855250505050505090500191505060405160208183030381529060405280519060200120816040516020018082805190602001908083835b60208310612c8b5780518252602082019150602081019050602083039250612c68565b6001836020036101000a038019825116818451168082178552505050505050905001915050604051602081830303815290604052805190602001201415612cd6576001915050612cdc565b60009150505b92915050565b6060600660008381526020019081526020016000206004018054600181600116156101000203166002900480601f016020809104026020016040519081016040528092919081815260200182805460018160011615610100020316600290048015612d8e5780601f10612d6357610100808354040283529160200191612d8e565b820191906000526020600020905b815481529060010190602001808311612d7157829003601f168201915b50505050509050919050565b60405180606001604052806000815260200160608152602001600081525090565b828054600181600116156101000203166002900490600052602060002090601f016020900481019282601f10612dfc57805160ff1916838001178555612e2a565b82800160010185558215612e2a579182015b82811115612e29578251825591602001919060010190612e0e565b5b509050612e379190612ef8565b5090565b828054600181600116156101000203166002900490600052602060002090601f016020900481019282601f10612e7c57805160ff1916838001178555612eaa565b82800160010185558215612eaa579182015b82811115612ea9578251825591602001919060010190612e8e565b5b509050612eb79190612ef8565b5090565b6040518060e00160405280600081526020016060815260200160608152602001606081526020016060815260200160608152602001606081525090565b612f1a91905b80821115612f16576000816000905550600101612efe565b5090565b9056fea265627a7a723158208114e5be9262ad16fc676b5063642226a9f22c7d6348031800d2ccc0afb0ce0764736f6c63430005100032",
  "source": "pragma solidity ^0.5.0;\r\n\r\nimport \"./Oracle.sol\";\r\n\r\ncontract State {\r\n  string name;\r\n  address owner = 0x9838a5e2cB634b8852548F0449Fe0A6d116aA232;   // The owner of the contract should be set in the constructor using msg.sender\r\n                                                                // For testing purposes this user address is used as this account has been assigned ether on the kovan testnet\r\n  string public initialState = \"default initial\";\r\n  string public finalState = \"default final\";\r\n  address oracleAdr;\r\n\r\n  uint public assetCount = 0;\r\n  mapping(uint => Asset) public assets;\r\n\r\n  uint public userCount = 0;\r\n  mapping(uint => User) public users;\r\n\r\n  uint public roleCount = 0;\r\n  mapping(uint => string) public roles;\r\n\r\n  constructor() public {\r\n    name = \"State contract\";\r\n  }\r\n\r\n  struct Asset{                 // struct to store asset (patch)\r\n    uint id;\r\n    string name;\r\n    string operating_system;\r\n    string software_name;\r\n    string state;\r\n    string hash;\r\n    string device;\r\n  }\r\n\r\n  struct User{\r\n    uint id;\r\n    string blockchain_address;\r\n    uint user_role;\r\n  }\r\n\r\n  function add_role(string memory _rolename) public   // Add a role to the role mapping and do the same on the oracle contract\r\n  {\r\n    roles[roleCount] = _rolename;\r\n    \r\n    Oracle o = Oracle(oracleAdr);\r\n    o.add_role(_rolename, roleCount);\r\n    roleCount++;\r\n  }\r\n  \r\n  function add_user(string memory _address, uint _roleid) public\r\n  {\r\n      User memory u;\r\n      u.id = userCount;\r\n      u.blockchain_address = _address;\r\n      u.user_role = _roleid;\r\n      users[userCount] = u;\r\n      userCount++;\r\n  }\r\n\r\n  function add_role_to_user(uint _uid, uint _rid) public\r\n  {\r\n    users[_uid].user_role = _rid;\r\n  }\r\n\r\n  function get_name() public view returns (string memory)\r\n  {\r\n    return name;\r\n  }\r\n\r\n  function get_owner() public view returns (address)\r\n  {\r\n    return owner;\r\n  }\r\n\r\n\r\n  function set_oracle(address _oracle) public\r\n  {\r\n    oracleAdr = _oracle;\r\n  }\r\n\r\n  function get_oracle() public view returns (address)\r\n  {\r\n    return oracleAdr;\r\n  }\r\n\r\n  function set_initial(string memory _newinitial) public\r\n  {\r\n    initialState = _newinitial;\r\n  }\r\n  function set_final(string memory _newfinal) public\r\n  {\r\n    finalState = _newfinal;\r\n  }\r\n\r\n  function add_asset(string memory _name, string memory _hash, string memory _operating_system, string memory _software_name) public\r\n  {\r\n    Asset memory p; \r\n    p.name = _name;\r\n    p.state = initialState;\r\n    p.id = assetCount;\r\n    p.hash = _hash;\r\n    p.operating_system = _operating_system;\r\n    p.software_name = _software_name;\r\n    p.device = \"null\";\r\n    assets[assetCount] = p;\r\n    assetCount++;\r\n  }\r\n\r\n  function copy_patch(uint _assetid) public         // Copies all fields of an asset except the id. Used for applying assets to devices\r\n  {\r\n    Asset memory p; \r\n    p.name = assets[_assetid].name;\r\n    p.state = assets[_assetid].state;\r\n    p.id = assetCount;\r\n    p.hash = assets[_assetid].hash;\r\n    p.operating_system = assets[_assetid].operating_system;\r\n    p.software_name = assets[_assetid].software_name;\r\n    p.device = \"null\";\r\n    assets[assetCount] = p;\r\n    assetCount++;\r\n  }\r\n\r\n  function apply_device(uint _assetid, string memory _device_name) public\r\n  {\r\n    assets[_assetid].device = _device_name;\r\n  }\r\n\r\n  function get_asset_name(uint _assetid) public view returns (string memory)\r\n  {\r\n    return assets[_assetid].name;\r\n  }\r\n  function get_current_state(uint _assetid) public view returns (string memory)\r\n  {\r\n    return assets[_assetid].state;\r\n  }\r\n  function get_operating_system(uint _assetid) public view returns (string memory)\r\n  {\r\n    return assets[_assetid].operating_system;\r\n  }\r\n  function get_software_name(uint _assetid) public view returns (string memory)\r\n  {\r\n    return assets[_assetid].software_name;\r\n  }\r\n  function get_asset_device(uint _assetid) public view returns (string memory)\r\n  {\r\n    return assets[_assetid].device;\r\n  }\r\n  \r\n  function check_hash(uint _assetid, string memory _hash) public view returns (bool)        // Compare the hash stored on the blockchain with the recalculated hash of the locally stored asset\r\n  {\r\n      string memory testhash = assets[_assetid].hash;\r\n      if(keccak256(abi.encodePacked(testhash)) == keccak256(abi.encodePacked(_hash)))\r\n      {\r\n          return true;\r\n      }\r\n      else\r\n      {\r\n          return false;\r\n      }\r\n  }\r\n\r\n  function transition(uint _assetid, string memory _targetstate, uint _role, string memory _hash) public    // Transition asset to target state if the hash has not changed, the role is correct, and the transition is correct\r\n  {\r\n    bool hash_check = check_hash(_assetid, _hash);\r\n    if(hash_check == false)\r\n    {\r\n        return;\r\n    }\r\n    string memory _firststate = assets[_assetid].state;\r\n\r\n    Oracle o = Oracle(oracleAdr);\r\n\r\n    bool result = o.valid_transition(_firststate, _targetstate, _role);\r\n\r\n    if(result == false)\r\n    {\r\n      return;\r\n    }\r\n    else\r\n    {\r\n      assets[_assetid].state = _targetstate;\r\n    }\r\n\r\n  }\r\n\r\n}\r\n",
  "sourcePath": "/workspace/contracts/State.sol",
  "compiler": {
    "name": "solc",
    "version": "0.5.16+commit.9c3226ce.Emscripten.clang"
  },
  "schemaVersion": "3.4.10",
  "updatedAt": "2022-10-18T05:12:48.045Z",
  "devdoc": {
    "methods": {}
  },
  "userdoc": {
    "methods": {}
  }
}